:020000040001F9
:10800000083A0020298101004381010025920100E6
:108010000000000000000000000000000000000060
:108020000000000000000000000000004781010087
:108030000000000000000000498101004B810100A8
:108040004D8101004D810100D19501004D8101005C
:108050004D81010000000000999001004D81010058
:108060004D810100BD9501004D8101004D81010050
:108070004D8101004D8101004D8101004D810100C4
:108080004D8101006D9301004D8101004D81010082
:10809000959301004D8101009D9301004D810100E8
:1080A0004D8101004D810100000000000000000032
:1080B00000000000000000000000000000000000C0
:1080C0000348854600F0CAF800480047E9C40100AB
:1080D000083A0020056885F308884068FF2464B2E8
:1080E000EFF30585002D01D1A6460047254606463B
:1080F00021273FBAF0B40024002500260027F0B461
:10810000F92040B200470000401E00BF00BF00BF82
:1081100000BF00BF00BF00BF00BF00BF00BF00BF67
:1081200000BFF1D1704700000321094802680A43EB
:108130000260084802680A4302600748804707480F
:108140000047FEE7FEE7FEE7FEE7FEE7FEE700008A
:10815000240500405405004059950100C1800100EC
:1081600030B50B46014600202022012409E00D46CF
:10817000D5409D4205D31D469540491B2546954057
:1081800040191546521E002DF1DC30BD70B500249B
:108190002546002801DA01244042002901DA0125A0
:1081A0004942FFF7DDFFAC4200D04042002C00D036
:1081B000494270BD03460B439B0703D009E008C941
:1081C000121F08C0042AFAD203E00B780370401C87
:1081D000491C521EF9D27047D2B201E00270401C15
:1081E000491EFBD270470022F6E710B513460A4637
:1081F00004461946FFF7F0FF204610BDF0B51FB446
:108200000646002082B005464024019100901BE004
:10821000019922460F46304600F042F8049A059B29
:10822000801A994110D310461946224600F028F8CA
:10823000361A8F410197224601200021009F00F04D
:108240001FF838184D4100902046641E0028DFDCDE
:10825000019B00982946324607B0F0BD064C012527
:10826000064E05E0E36807CC2B430C3C98471034DE
:10827000B442F7D3FFF728FF18EA010038EA0100FB
:1082800010B5202A04DB0146203A9140002010BDA1
:10829000914020239C1A0346E3401943904010BDAF
:1082A00010B5202A04DB0846203AD040002110BD3A
:1082B0000B46D340D0402024A21A914008431946CF
:1082C00010BD7CB500BF1C25032400200090234670
:1082D000024601460190284604F04AFC00BF00BF58
:1082E0007CBD0000F0B58FB006460F46002420216B
:1082F00005A8FFF778FF00250DA871DF0DA880798C
:108300000DA949790DAA12790DABDB780093019282
:10831000029103900DA8837808A8427D07A105A8C3
:1083200001F0F2F9C5B200BF04E005A9085D01F053
:10833000CFFF641CAC42F8D30FB0F0BD2B4C454DC1
:1083400041433A25783A25783A25783A25783A25EE
:10835000783A25780D0A0000F0B591B00746402123
:1083600001A8FFF740FF002600240025134800F075
:108370006DFE13A101A801F0C7F9C4B201A9081943
:108380000C220E49FFF716FF01AA21460C315018A6
:108390000EA101F0B9F921460C314018C6B200BF58
:1083A00008E000BF01A9485D01F092FF0028F9D163
:1083B000681CC5B2B542F4DB11B0F0BDFC2D002045
:1083C0002B4C454E414D453A000000000D0A00007F
:1083D000F0B589B006460C460027202101A8FFF71A
:1083E00002FF00250C2C00DD0C24224631460D48EE
:1083F000FFF7E0FE0B4800F039FE0BA101A801F0E9
:1084000083F9C7B2002508E000BF01A9485D01F06B
:108410005FFF0028F9D1681CC5B2BD42F4DB09B08A
:10842000F0BD0000FC2D00204F4B0D0A00000000A5
:1084300070B505460C4618A1284601F065F80028DD
:1084400003D1E1B22846FFF74DFF16A1284601F0FF
:108450005BF8002803D1E1B2284600F03DF814A1F2
:10846000284601F051F8002803D1E1B22846FFF771
:1084700073FF13A1284601F047F8002806D12046D3
:108480000B38C1B228460B30FFF7A2FF0FA12846D8
:1084900001F03AF870BD000041542B4C454D41436A
:1084A0003F0D0A0041542B5645523F0D0A00000073
:1084B00041542B4C454E414D453F0D0A00000000F4
:1084C00041542B4C454E414D453D000041542B55E8
:1084D000524154453D000000F0B591B0074640219F
:1084E00001A8FFF780FE00240025002611A101A8A5
:1084F00001F00AF9C4B201A908190D220FA1FFF772
:1085000059FE01AA21460D31501810A101F0FCF8C6
:10851000C6B220460D308019C4B200BF05E001A9E3
:10852000485D01F0D5FE681CC5B2A542F7DB11B06D
:10853000F0BD00005645523A000000005645525F1B
:1085400030305F30305F3031000000000D0A000035
:108550001CB51D2400200090034601221146019005
:10856000204604F005FB00BF1CBD00001D200121BA
:108570008140024A916000BF704700000005005032
:108580001D2001218140024AD16000BF70470000D8
:108590000005005010B5012292020849084801F078
:1085A0009AFC012292020749074801F094FC044812
:1085B00001F07CFC044801F079FC10BD6C25002022
:1085C0006C2D00206C2900207C2D002070B500242B
:1085D000002500BF00F058F80446142C00DD1424D8
:1085E000002C14DD0E4862DF21460E4800F030F802
:1085F00022460C490C4802F0C1FB054608480078A9
:10860000401C07490870294608A006F08BF8002D89
:1086100005D1002C03DD024800780728DADB70BDA5
:10862000082000208C2D0020102100206572725F30
:10863000636F64653D25780D0A00000010B503489E
:108640000078012801D1FFF7C1FF10BD07200020ED
:1086500038B504460D460020009000956A46214634
:10866000014801F05EFC38BD7C2D002038B5044681
:108670000D460020009000956A462146014801F011
:1086800085FC38BD7C2D002010B5024803F06BFB43
:1086900080B210BD7C2D002010B504462088122821
:1086A0001DD006DC01282FD0102807D0112838D182
:1086B0000BE0502821D0522833D11AE01CA006F03C
:1086C00031F800201F4908702CE01FA006F02AF89E
:1086D00001201C49087002202149087022E021A0D5
:1086E00006F020F802201749087001201C49087084
:1086F00018E001201A49087014E001201849087098
:10870000204600F05BF80DE000202049087000F0E2
:108710004BF803200B490870FFF758FF00F056FF95
:1087200000E000BF00BF218819A005F0FBFF10BDCD
:10873000626C6520636F6E6E6563746564206F6B39
:108740000D0A000006200020626C652064697363D6
:108750006F6E6E6563746564206F6B0D0A000000B8
:1087600007200020626C6520636F6E6E6E20706162
:1087700072612075706164617465207375636365EF
:10878000737366756C6C790D0A0000000820002078
:1087900065767469643D25780D0A0000014800780B
:1087A000704700000720002010B5034803F0C2FF07
:1087B000014803F0E9FF10BD70E9010070B50546FE
:1087C000AC1D20883749C98888420AD1208B0128EE
:1087D00007D13448006C002803D0A07E314A116CC8
:1087E000884720882F49C98988420AD1208B0128CF
:1087F00007D12C48406C002803D0A07E294A516C38
:10880000884720882749C98A88420AD1208B0128B5
:1088100007D12448806C002803D0A07E214A916CA7
:10882000884720881F49C98B88420AD1208B01289C
:1088300007D11C48C06C002803D0A07E194AD16C17
:10884000884720881749C98C88420AD1208B012883
:1088500007D11448006D002803D0A07E114A116D85
:10886000884720880F49C98D88420AD1208B01286A
:1088700007D10C48406D002803D0A07E094A516DF5
:10888000884720880749C98E88420AD1208B012851
:1088900007D10448806D002803D0A07E014A916D65
:1088A000884770BDA02D002038B5002401216846FE
:1088B00081701B21C9430180154816490864164878
:1088C0004864164888641648C864164808651648FF
:1088D0004865164888650A1D69460120A0DF0446E0
:1088E000002C00D038BD00F013F9044600F088F9E0
:1088F00000F0FEF900F074FA00F0EAFA00F018F85F
:1089000000F08EF8002C00D0ECE700BFEAE7000092
:108910002D940100A02D00205994010085940100A0
:10892000B1940100DD940100D59301000194010090
:1089300000B58FB01C2108A8FFF755FC08A80078E7
:1089400008218843411808A8017000780421884351
:10895000011D08A80170007810218843014608A86D
:108960000170002009900B900C900D900E90012149
:10897000684681721521C94301810020019000BF22
:108980006846007901090901491C684601710079AE
:10899000F021884310306946087100BF00BF684667
:1089A000407901090901491C684641714079F0216B
:1089B000884310306946487100BF684680790621B7
:1089C0008843811C6846817180790821884301466B
:1089D000684681718079102188430146684681711B
:1089E000807941084900491C68468171142103A817
:1089F000FFF7F9FB02A8039001A804900121684643
:108A000081820021C18201210183044988880B46AB
:108A10002E3303AA08A9A2DF0FB000BDA02D0020AD
:108A200000B58FB01C2108A8FFF7DDFB08A800786F
:108A300008218843411808A8017000780421884360
:108A4000011D08A80170007810218843014608A87C
:108A50000170002009900B900C900D900E90012158
:108A6000684681721421C94301810020019000BF32
:108A70006846007901090901491C684601710079BD
:108A8000F021884310306946087100BF00BF684676
:108A9000407901090901491C684641714079F0217A
:108AA000884310306946487100BF684680790621C6
:108AB0008843811C6846817180790821884301467A
:108AC000684681718079102188430146684681712A
:108AD000807941084900491C68468171142103A826
:108AE000FFF781FB02A8039001A8049001216846CA
:108AF00081820021C18201210183044988880B46BB
:108B0000363303AA08A9A2DF0FB000BDA02D0020B4
:108B100000B58FB01C2108A8FFF765FB08A80078F6
:108B200008218843411808A801700078042188436F
:108B3000011D08A80170007810218843014608A88B
:108B40000170002009900B900C900D900E90012167
:108B5000684681721A21C94301810020019000BF3B
:108B60006846007901090901491C684601710079CC
:108B7000F021884310306946087100BF00BF684685
:108B8000407901090901491C684641714079F02189
:108B9000884310306946487100BF684680790621D5
:108BA0008843811C68468171807908218843014689
:108BB0006846817180791021884301466846817139
:108BC000807941084900491C68468171142103A835
:108BD000FFF709FB02A8039001A804900121684651
:108BE00081820021C18214210183044988888B1D60
:108BF00003AA08A9A2DF0FB000BD0000A02D00202D
:108C000000B58FB01C2108A8FFF7EDFA08A800787E
:108C100008218843411808A801700078042188437E
:108C2000011D08A80170007810218843014608A89A
:108C30000170002009900B900C900D900E90012176
:108C4000684681721921C94301810020019000BF4B
:108C50006846007901090901491C684601710079DB
:108C6000F021884310306946087100BF00BF684694
:108C7000407901090901491C684641714079F02198
:108C8000884310306946487100BF684680790621E4
:108C90008843811C68468171807908218843014698
:108CA0006846817180791021884301466846817148
:108CB000807941084900491C68468171142103A844
:108CC000FFF791FA02A8039001A8049001216846D9
:108CD00081820021C18214210183044988880B46C6
:108CE0000E3303AA08A9A2DF0FB000BDA02D0020FB
:108CF00000B58FB01C2108A8FFF775FA08A8007806
:108D000008218843411808A801700078042188438D
:108D1000011D08A80170007810218843014608A8A9
:108D20000170002009900B900C900D900E90012185
:108D3000684681721821C94301810020019000BF5B
:108D40006846007901090901491C684601710079EA
:108D5000F021884310306946087100BF00BF6846A3
:108D6000407901090901491C684641714079F021A7
:108D7000884310306946487100BF684680790621F3
:108D80008843811C684681718079082188430146A7
:108D90006846817180791021884301466846817157
:108DA000807941084900491C68468171142103A853
:108DB000FFF719FA02A8039001A804900121684660
:108DC00081820021C18201210183044988880B46E8
:108DD000163303AA08A9A2DF0FB000BDA02D002002
:108DE00000B58FB01C2108A8FFF7FDF908A800788E
:108DF00008218843411808A801700078042188439D
:108E0000011D08A80170007810218843014608A8B8
:108E10000170002009900B900C900D900E90012194
:108E2000684681721721C94301810020019000BF6B
:108E30006846007901090901491C684601710079F9
:108E4000F021884310306946087100BF00BF6846B2
:108E5000407901090901491C684641714079F021B6
:108E6000884310306946487100BF68468079062102
:108E70008843811C684681718079082188430146B6
:108E80006846817180791021884301466846817166
:108E9000807941084900491C68468171142103A862
:108EA000FFF7A1F902A8039001A8049001216846E8
:108EB00081820021C18201210183044988880B46F7
:108EC0001E3303AA08A9A2DF0FB000BDA02D002009
:108ED00000B58FB01C2108A8FFF785F908A8007815
:108EE00008218843411808A80170007804218843AC
:108EF000011D08A80170007810218843014608A8C8
:108F00000170002009900B900C900D900E900121A3
:108F1000684681721621C94301810020019000BF7B
:108F20006846007901090901491C68460171007908
:108F3000F021884310306946087100BF00BF6846C1
:108F4000407901090901491C684641714079F021C5
:108F5000884310306946487100BF68468079062111
:108F60008843811C684681718079082188430146C5
:108F70006846817180791021884301466846817175
:108F8000807941084900491C68468171142103A871
:108F9000FFF729F902A8039001A80490012168466F
:108FA00081820021C18201210183044988880B4606
:108FB000263303AA08A9A2DF0FB000BDA02D002010
:108FC0003EB500200090019002900D4801900020D5
:108FD00002900120694608800A4801F07DFD0446A0
:108FE00000BF2546002D06D000BF002211462846AE
:108FF00000F040FF00BF00BF034802F0B3FB3EBDDE
:1090000011B601002C210020D9D7010010B5002491
:1090100004F0FAF91020094988800120C880084826
:10902000086004F0F1F904460649044804F0AEFA79
:109030000446054800F00AF810BD00001420002086
:10904000C9BC01000C200020FC2D002010B50446F6
:10905000054A0021104604F0DFF8002310220249DF
:10906000204604F015FA10BD0C20002070B504460F
:109070000025084A0021104604F0CEF810210548CA
:1090800004F01CF9002310222146024804F00EFBD4
:10909000284670BD0C200020F0B587B000260020C7
:1090A0000690FF20013005900125002416E0059868
:1090B00003F0D6FD00280BD000BF5648406828407A
:1090C000002805D0059803F0C3FD30462843064626
:1090D0006D000598001D80B20590641C042CE6D339
:1090E000FF207D3003F0BCFD00280AD0FF207D303A
:1090F00003F0AEFD0120C007064300BF46480069EB
:1091000006903007000F00282AD00125002425E012
:109110002846304000281FD000BF40485121090197
:109120004018A10040581F2109020840000A04907D
:1091300000BF3A48512109014018A10040580321BD
:1091400009040840000C0390204601F037FF074651
:1091500003990498B84700BF6D00641C042CD7D352
:10916000F00FC007002852D000244EE02C480057D2
:10917000401C002848D02A48005D0490C021049873
:1091800088430746384601F021FF029001F016FFA0
:1091900003900398002836D0C0210498084080111D
:1091A00002900120B840054600BF052000070721B6
:1091B00009024018B9004058032109040840000C76
:1091C000019006982840002802D00198022806D075
:1091D00006982840002815D10198032812D102983A
:1091E00003280BD10198022801D1032000E00220BE
:1091F00000903846009903F0FAFC00BF3846039A05
:109200000299904700BF00BF641C042CAED307B086
:10921000F0BD000000630040000500500060004009
:109220001031002010B502A005F07CFA10BD00003E
:1092300068617264206661756C740D0A000000003C
:10924000C206D20E01219140014A11607047000010
:1092500080E200E0C206D20E01219140014A116075
:109260007047000000E100E0C206D20E01219140EB
:10927000014A11607047000000E200E010B50028CC
:1092800019DA1A4A03071B0F083B9B089B00D258A8
:109290008307DC0EFF23A3409A438B071B0E840732
:1092A000E40EA3401A43114B0407240F083CA40802
:1092B000A4001A5118E00E4A03231B02D218830897
:1092C0009B00D2588307DC0EFF23A3409A438B07F1
:1092D0001B0E8407E40EA3401A43054B032424020B
:1092E0001B198408A4001A5110BD00001CED00E0F9
:1092F00000E100E010B5002819DA1A4A03071B0F35
:10930000083B9B089B00D2588307DC0EFF23A34039
:109310009A438B071B0E8407E40EA3401A43114B9C
:109320000407240F083CA408A4001A5118E00E4AB0
:1093300003231B02D21883089B00D2588307DC0E3C
:10934000FF23A3409A438B071B0E8407E40EA34020
:109350001A43054B032424021B198408A4001A5144
:1093600010BD00001CED00E000E100E010B50020A1
:10937000074908600021064841608160C160002003
:10938000034940390860486004F0D4FF10BD000074
:109390004011014010B504F0E1FE10BD70B50C485D
:1093A0000068002810D00A4800688047044600BFC3
:1093B0002546002D06D000BF00221146284600F0A9
:1093C00059FD00BF00BF01E002F000FE70BD0000CB
:1093D000F420002010B50446214602A005F0A2F9B1
:1093E00010BD00007265636965766564206368611D
:1093F000723620646174613D25640D0A000000002E
:1094000010B50446214602A005F08CF910BD0000FD
:10941000726563696576656420636861723720648C
:109420006174613D25640D0A0000000010B504461A
:10943000214602A005F076F910BD0000726563694F
:109440006576656420636861723120646174613D92
:1094500025640D0A0000000010B50446214602A054
:1094600005F060F910BD000072656369657665649A
:1094700020636861723220646174613D25640D0A65
:109480000000000010B50446214602A005F04AF98C
:1094900010BD00007265636965766564206368616C
:1094A000723320646174613D25640D0A0000000080
:1094B00010B50446214602A005F034F910BD0000A5
:1094C00072656369657665642063686172342064DF
:1094D0006174613D25640D0A0000000010B504466A
:1094E000214602A005F01EF910BD000072656369F7
:1094F0006576656420636861723520646174613DDE
:1095000025640D0A0000000030B503460C4600211A
:109510001CE0585C2578A84200D016E0002206E046
:10952000521CA05C8D185D5DA84200D006E0A05CD6
:10953000002803D08818185C0028F1D100BFA05C77
:10954000002801D1084630BD00BF491C585C0028E6
:10955000DFD1401EF7E7000010B502F001FE002841
:1095600005D0104810494860C8131049886102F0BE
:10957000DBFD002802D001200D49886002F052FE78
:1095800000280ED00B480068012807D00A48094976
:10959000086000BF074800680128FBD1C0200549CA
:1095A000486110BDDFFF07C000050040006C0040AF
:1095B0000006004000EC06407593000010B5002145
:1095C000014803F079F910BD009000407047000099
:1095D0001FB5012149024A4803F094FB00282FD00F
:1095E000FF212531464803F06FFB002828D0FF21DA
:1095F0002531434803F070FB81218900404803F086
:1096000077FB4048407D002803D104213C4803F00B
:1096100085FB022069460870394803F04BFB039034
:109620003848C17C684601723648C0680190002005
:109630003449C8740846016842686846904725E086
:1096400004212F4803F05EFB00281FD0FF210931C1
:109650002B4803F039FB002818D004F05DF92948A5
:10966000C07C2849097D884210D12648407D0028C9
:1096700003D10421224803F051FB812189002048B5
:1096800003F036FB1F49087D04F0FAF9FF211D3174
:109690001B4803F019FB002815D01A48807C194993
:1096A000098A884202DD04F0B7FE0CE0FF211D317B
:1096B000134803F011FB1348807C002803D01149A4
:1096C000887C04F03BFFFF2145310D4803F0FCFA94
:1096D000002814D0FF214531094803F0FDFA09485C
:1096E000407D002803D00021054803F017FB054802
:1096F000C07C002803D00349087D04F0C1F91FBDD8
:1097000000200040183100200FB410B504A9074B09
:1097100002AA039800F02AF8044602A9002000F0EB
:109720005FFA204610BC08BC04B01847E19B01005A
:1097300030B47446641E2578641CAB4204D3635D68
:109740005B00E31830BC18471D46F8E702E008C884
:10975000121F08C1002AFAD170477047002001E0AB
:1097600001C1121F002AFBD170470000FFB591B064
:109770000F460546002606E025280AD0149A1399BC
:1097800090476D1C761C28780028F5D1304615B01E
:10979000F0BD002400940121F34A029400E0044348
:1097A0006D1C2B780846203B98401042F7D1287852
:1097B0002A280ED0022128780246303A092A15D8E4
:1097C000009A0A235A43303A80180C436D1C0090CB
:1097D000F1E701CF0090002805DA0120400304439F
:1097E000009840420090022004436D1C28782E28E7
:1097F00015D10420044368786D1C2A280AD101CFB2
:109800006D1C02900BE002990A2251433039401836
:109810006D1C02902878014630390929F3D928783F
:109820006C2810D006DC4C281AD068280ED06A2884
:1098300017D104E0742813D07A2812D110E0012047
:10984000400504430CE00121090501E0032109055D
:109850000C436978814203D10120000524186D1C56
:109860006D1C287803906E281ED00CDC632831D044
:1098700004DC00288AD0582811D1B2E064287BD0BB
:1098800069280CD178E073282DD004DC6F2870D0C3
:10989000702804D1A7E075286CD078286BD0149A72
:1098A00013999047761C62E06002400F022807D0AF
:1098B00003280AD0042838680AD006603F1D56E005
:1098C0003868F11706604160F8E738680680F5E708
:1098D0000670F3E73878694608740020487404A8D5
:1098E0000390012003E0386803900020C0433F1D2F
:1098F00061070FD5002101E00199491C029A0191ED
:10990000914213DA8142F7DB019A0399895C0029BD
:10991000F2D10BE0002101E00199491C0191814243
:10992000FADB019A0399895C0029F5D10199009825
:10993000139A401A00902146149B00F03BF90199BC
:109940008019461807E0039803990078491C039191
:10995000149A139990470198401E0190401CF2D12F
:109960002146149B139A009800F014F986196D1C77
:1099700009E741E033E034E00A200021049005913A
:109980006002410F022905D001CFC2179446032976
:1099900005D007E0FF1DFF08FF0003CF06E000B27F
:1099A000C2179446042902D140B2C1178C46002246
:1099B0006146944506DA0A460021404291418C46B0
:1099C0002D2102E0210504D52B216A4611760121C3
:1099D00003E0E10701D02021F7E7019154E00A20DC
:1099E0000BE0102009E01020049000210420044323
:1099F00008200591029003E00820002105910490C1
:109A00006002410F022905D001CF002294460329AC
:109A100006D006E0FF1DFF08FF0003CF8C4603E0E1
:109A200080B2042900D1C0B20021019121072BD5B9
:109A30000399702906D0049A1021059B4A401A43C5
:109A400005D00EE040216A461176012108E061460A
:109A5000014306D030216A461176039951760221DE
:109A60000191049A0821059B4A401A430CD1614692
:109A7000014301D1610707D530216A4611760121E2
:109A800001910299491E02910399582904D037A1E6
:109A900003910FA90F910DE039A1F9E76146059BEC
:109AA000049AFEF7ABFB039B8C469B5C0F9A521EFD
:109AB0000F92137061460143F0D10F9807A9081A5D
:109AC00020300390600704D50120000484430298ED
:109AD00001E0012002900399884201DD401A00E074
:109AE000002041180290019809180098401A00902F
:109AF000E00306D42146149B139A009800F05AF80C
:109B000086190020049008E006A9085C149A1399AD
:109B100090470498401C761C049001998842F3DB1E
:109B2000E0030CD52146149B139A009800F042F8EC
:109B3000861904E0149A302013999047761C0299F4
:109B4000481E02900029F5DC08E00F980F99007874
:109B5000491C0F91149A13999047761C0399481E3B
:109B600003900029F1DCFBE6092801003031323393
:109B70003435363738396162636465660000000049
:109B80003031323334353637383941424344454633
:109B900000000000F8B5044600251E46174688045C
:109BA00004D405E039462020B0476D1C641EF9D569
:109BB0002846F8BDFFB50446002581B01E46C803FF
:109BC00001D5302700E02027880404D505E0384679
:109BD0000399B0476D1C641EF9D5284605B0F0BD49
:109BE0000A68531C0B6010707047F7B582B00446CA
:109BF00016460025378800203080606B00280CD086
:109C0000616B08783B463246039903F061FF0546D5
:109C1000002D02D0284605B0F0BD206B00280AD0E8
:109C20003B463246206B039904F0D3FB0546002DDA
:109C300001D02846EFE72E20005D00280BD02E2112
:109C4000085D3B463246039902F047FB0546002D6E
:109C500001D02846DFE72D20005D002809D03A46D4
:109C60003146039800F002FF0546002D01D028463A
:109C7000D1E7A078002809D03A463146039800F091
:109C80003DFB0546002D01D02846C4E7E0780028BA
:109C90000BD0E17848B23B463246039902F071F8A6
:109CA0000546002D01D02846B5E7606800280CD095
:109CB0000020616808563B463246039904F054FC84
:109CC0000546002D01D02846A5E7208900280DDD96
:109CD000019700960622022120460830039B04F0DB
:109CE000ADFD0546002D01D0284694E7208A0028C6
:109CF0000DDD019700960722032120461030039BBB
:109D000004F09CFD0546002D01D0284683E7208BFA
:109D100000280DDD019700961522142120461830E9
:109D2000039B04F08BFD0546002D01D0284672E709
:109D3000206A00280AD03B463246206A039901F087
:109D400025FB0546002D01D0284664E7606A0028FF
:109D50000AD03B463246606A039902F031FC054660
:109D6000002D01D0284656E72C20005D00280ADD92
:109D70003B4632462046039903F0C5FE0546002DBA
:109D800001D0284647E7207800280AD03B463246D3
:109D90002046039902F050FC0546002D01D02846CC
:109DA00039E7284637E70146C878042210400028E2
:109DB00001D1072070470020FCE7000030B5A7B0B4
:109DC000382119A8FEF70FFA022118A80171002105
:109DD00081710621C17138210BA8FEF704FA012117
:109DE0006846818711491091242102A8FEF7FBF9EA
:109DF00001216846017540200690B420079000209C
:109E00000B4B02AA0BA9009019A800F01BFB0446FB
:109E100000BF2546002D06D000BF0022114628466F
:109E200000F028F800BF00BF27B030BD022000209E
:109E300055CD010070B574DF044600BF2546002DE6
:109E400006D000BF00221146284600F013F800BFDC
:109E500000BF002001F09CF8044600BF2546002DFD
:109E600006D000BF00221146284600F003F800BFCC
:109E700000BF70BD00BF00BF00BF00BF00BFBFF389
:109E80004F8F00BF00BF00BF06480749C86000BF32
:109E900000BF00BFBFF34F8F00BF00BF00BF00BFB8
:109EA00000BFFDE70400FA0500ED00E00146C868C8
:109EB00088600020704770B504460D46204601F0CA
:109EC00052FF002805D02946204601F03DFF002022
:109ED00070BD0520FCE70346002901D10E20704724
:109EE000002A03D0501E1040002801D00920F6E7B8
:109EF0001960501E988000209860D86000BFEEE77F
:109F000070B504460D46204601F02DFFA188884219
:109F100005D82946204601F02BFF002070BD042003
:109F2000FCE7F7B582B00E4615460298002802D12C
:109F30000E2005B0F0BD002D01D10E20F9E70298EA
:109F400001F011FF04462F680020019000902C6062
:109F5000002C01D10520ECE7002E02D12C6000205E
:109F6000E7E7A74201D2009700E0009400BF019804
:109F7000421C81190192029801F0E6FE00990198B5
:109F80008842F4D3009828600020D2E7F7B582B069
:109F900006461446002E02D10E2005B0F0BD002C5E
:109FA00001D10E20F9E7304601F0DDFEB188081A34
:109FB000451C27680020019000902560002D01D1EC
:109FC0000420EAE70398002801D12560E5E7AF42C5
:109FD00001D2009700E0009500BF0198421C019259
:109FE000039A115C304601F0C3FE00990198884243
:109FF000F3D3009820600020CFE70000F8B50546B5
:10A000000C4627780C21A068484306490E5806489C
:10A01000006800902A463946204608302369B04738
:10A02000F8BD0000FC310020BC20002010B5044623
:10A030000648007814225043044A121D8118204615
:10A04000FFF7DCFF042003F0C5FD10BD3031002018
:10A0500010B503460C460D480068002801D10820C1
:10A0600010BD002A01D10720FAE7002B01D10720FB
:10A07000F6E71868007C002801D00820F0E719688E
:10A08000002008744C744A6100BFE9E7D420002026
:10A09000FFB581B00E4614461F4620468107890F42
:10A0A000002901D1012100E00021002902D107206F
:10A0B00005B0F0BD002C04D100201C490860072029
:10A0C000F6E703F0FDFB1A48076003201949087002
:10A0D00016480460183400250CE0E900134A1268A1
:10A0E0008818002101704170867044601821714306
:10A0F0000C196D1C032DF0DB00200F4908600F497F
:10A1000008700F4908701420FFF79AF803211420F3
:10A11000FFF7F0F81420FFF79DF8019803F0A6FB75
:10A1200003F09EFB074908600020C1E7D42000200F
:10A13000EC200020D0200020D8200020E8200020A3
:10A14000E9200020DC200020FEB504460D4617461D
:10A15000264612480068002801D10820FEBD002CC8
:10A1600001D10820FAE7052D01D20720F6E7706932
:10A17000002801D10820F1E7707C012801D1284690
:10A1800000E00020029004F02FFB009701902A4687
:10A190003146029B04F082F8E0E70000D420002062
:10A1A00070B5044625460B480068002801D10820F8
:10A1B00070BD002C02D06869002801D10820F7E7A3
:10A1C0000020287404F010FB0646294604F092F89B
:10A1D000EEE70000D420002070B504460A4801F0E4
:10A1E000BDFD09498988884209D10121074802F04B
:10A1F000E7FB0546002D01D0052070BD00BF2146BC
:10A200000148FFF758FEF8E7B03000209A20002000
:10A21000FFB589B004460D46174627480760002D54
:10A2200002D107200DB0F0BDA88882B2234829686A
:10A23000FFF751FE0646002E01D03046F2E7A8890E
:10A2400082B21F48A968FFF746FE0646002E01D0DD
:10A250003046E7E720221B4901A8FDF7ABFFA068C5
:10A2600007902079002801D0012000E000206946F5
:10A27000087608A90C9808706079002801D00E2093
:10A2800000E0002069464876E0780390A0780490CA
:10A2900020780290607801900B4901A802F050FBF1
:10A2A0000646002E01D03046BCE702F0F9FB012142
:10A2B000064802F085FBB5E794200020B03000206E
:10A2C000C0300020A8E9010005E601009A20002026
:10A2D00070B5044607480470012102F0EFFB054603
:10A2E000112D04D121460448FFF70AFE05462846F1
:10A2F00070BD000099200020C0300020F8B5054650
:10A300000C4617462088001DB84201D90C20F8BD24
:10A31000684679DF0646002E01D03046F7E7032075
:10A32000218868542088401C208019202188685486
:10A330002088401C2080208841196846008804F04D
:10A34000F8F92188401820800020E0E770B5044625
:10A35000206802F040FC206802F06CFC002160687C
:10A3600002F02CFCA06914490522120289184862E7
:10A3700000BF607D217D02460A430F4B05252D025B
:10A380005B19DA6600BF0C486268216802F0C9FCFC
:10A39000207D01280ED10021A06802F00FFCE068AA
:10A3A00002F019FCE06802F045FC0348A268E1688D
:10A3B00002F095FC70BD000000200040F3B593B0A2
:10A3C0000D461F21129111911398002814D0139853
:10A3D000FFF7E9FC0446002C02D0204615B0F0BD82
:10A3E00012AA09A91398FFF700FC0446002C01D01B
:10A3F0002046F3E709AE02E0002600201290002D6F
:10A4000013D0284603F046FC0446002C01D0204619
:10A41000E4E711AA01A92846FFF7E7FB0446002C50
:10A4200001D02046DAE701AF02E0002700201190BA
:10A4300010A88088C3B210A80089C1B23A4630463D
:10A4400072DFCBE7F8B504460F4615461E46002CD2
:10A4500001D0002D01D10E20F8BD00204849087020
:10A46000484806604849069808602422294647481B
:10A47000FDF7A0FE00F022F945484649086046482D
:10A48000886038214548FDF7AEFE207843490870C2
:10A49000A0788870E078C870607848706269206938
:10A4A0004A6108610846E268A168C2608160E269A9
:10A4B000A169C2618161606A00281BD038483749B0
:10A4C000486238498160606A00883449496A088076
:10A4D000606A80883149496A8880002005E0616AA5
:10A4E0008968095C2F4A1154401C2C49496A8988A3
:10A4F0008142F4D8A06A002824D02B492B488160DF
:10A500002649886228492548806A8160A06A808837
:10A510002249896A8880A06A00882049896A08805F
:10A52000002005E0A16A8968095C1F4A1154401C9B
:10A530001A49896A89888142F4D82C20015D17481C
:10A5400020300173206A00280BD019481349086293
:10A55000206A4088096A4880206A00880F49096A91
:10A5600008806068002804D012480C494860606880
:10A57000486039460948FFF721FF009000986BE7D3
:10A580004C2000204420002048200020442E0020A1
:10A59000782E0020682E0020982E00200C2E0020FF
:10A5A000B82E0020C42E0020F02E0020E42E002023
:10A5B000502000205420002070B504462088102828
:10A5C00004D0112806D0192869D11AE0A08835498D
:10A5D000088065E0002034490870A0883149098866
:10A5E00088420DD1012000F071F80546002D07D0FA
:10A5F0002E480068002803D028462C49096888475F
:10A600004EE0A079002849D129480078012806D0D9
:10A61000022813D0032820D004283DD12FE00220A7
:10A6200000F054F80546002D07D0204800680028A7
:10A6300003D028461D49096888472EE0032000F012
:10A6400045F80546002D07D018480068002803D0BB
:10A6500028461649096888471FE0032015490870F5
:10A66000042000F033F80546002D07D00F4800689D
:10A67000002803D028460D49096888470DE00020CE
:10A680000C4908700C480068002804D0084600787F
:10A6900009490968884700E000BF00BF00E000BF2B
:10A6A00000BF70BD562000204D2000204820002013
:10A6B0004C200020402000204420002010B507211D
:10A6C0000148FDF790FD10BD3920002030B587B05E
:10A6D0000546A248057000200090684602F084FDFF
:10A6E0000446082C02D10020009004E0002C02D087
:10A6F000204607B030BD0098002804D001209849BA
:10A7000008700020F5E7FFF7D9FF96484078002849
:10A7100003D092480078012807D09248807800281A
:10A7200012D08E48007802280ED18F480068002889
:10A7300007D001208D49087008208B490968884797
:10A7400002E00020894908708448007801280BD174
:10A7500084484078002804D0854802F037FD00285E
:10A7600002D102207D4908707C48007802280BD174
:10A770007C488078002804D07D4802F027FD00281E
:10A7800002D10320754908707648007B002806D165
:10A7900072480078032802D104207049087071487B
:10A7A000007E002808D16D480078042804D10020DC
:10A7B0006A4908706F4908706B480068002817D014
:10A7C00066480078032803D06448007804280FD135
:10A7D0006448007800280BD067480078002807D12B
:10A7E00001206649087007205F490968884702E030
:10A7F000002062490870182101A8FDF7F4FC00212F
:10A8000068460171002002906846017300200490A0
:10A8100052480078012806D0022811D0032823D0FE
:10A82000042879D150E05248401E02900121684628
:10A8300001710021C182818201204E49087075E0BA
:10A840004B48401E0290012168460171454800892D
:10A8500081B26846C1824348808881B2684681825D
:10A8600002204449087061E03E48808A81B268460F
:10A87000C1823C48008A81B268468182404804F027
:10A880006BF800281CD037480078002818D03A48C8
:10A890000078002814D102206946087338480490D3
:10A8A00004203849C87000213648FFF787FD044668
:10A8B000002C01D020461CE705202E49087002E03C
:10A8C00003202C49087031E02648808B81B268460D
:10A8D00081822448008C81B26846C182284804F0F5
:10A8E0003BF800281DD01F480078002819D02248C6
:10A8F0000078002815D1022069460873204804908A
:10A9000004202049C87000211E48FFF757FD044667
:10A91000002C02D02046ECE607E00620154908701E
:10A9200002E004201349087000E000BF00BF0B489C
:10A930000078002806D001A873DF0446002C01D05F
:10A940002046D6E608480068002804D00948007868
:10A950000549096888470020CBE600004C2000200C
:10A9600038200020442E0020442000204F200020CA
:10A970003A200020402000204D2000204E200020C2
:10A98000682E00200C2E002070B505461C2229469A
:10A990001448FDF70FFC00201349087028680028B0
:10A9A0000BD0082211482968FDF704FC0F487ADF14
:10A9B0000446002C08D0204670BD0C487BDF0446BE
:10A9C000002C01D02046F7E70020C043084908804A
:10A9D000002008490870084A00210848FFF738FBA2
:10A9E000EAE70000102F00206D20002058200020F2
:10A9F00062200020602000204DE7010084E9010072
:10AA000010B504462088102806D0112808D0122836
:10AA10000ED050281DD107E0204602F04FFA19E071
:10AA2000204602F017FB15E0204602F061FB11E022
:10AA300000BF09494868012189058143064A9160A0
:10AA4000012189050140D16000BF204602F02AFAA9
:10AA500000E000BF00BF10BD0005005010B5024867
:10AA60000068FFF79DFB10BD84E90100FEB50546B7
:10AA70000C46174620880930B84201D90C20FEBD8B
:10AA8000684671DF0646002E01D03046F7E7082001
:10AA9000218868542088401C20801B20218868540D
:10AAA0002088401C208021884819062200A90131F5
:10AAB000FDF780FB2088801D2080684600780028F4
:10AAC00002D12188685402E001202188685420883E
:10AAD000401C20800020D2E770B586B004460E46A8
:10AAE000002C04D0002E02D07068002802D10E2065
:10AAF00006B070BD0020C0432080204B0FCB01ADBD
:10AB00000FC51F4869468882163101A863DF0546D4
:10AB1000002D01D02846EBE7221D05A90120A0DF6A
:10AB20000546002D01D02846E2E76846807DA071E9
:10AB3000204600F08DFE0546002D01D02846D7E7BF
:10AB4000204600F015FE0546002D01D02846CFE72F
:10AB50003146204600F0E6FE0546002D01D028468D
:10AB6000C6E77068A062B068002801D0B068E062F3
:10AB70000120044908700020BAE7000098E90100AC
:10AB8000301500006E20002070B505460C46002DE3
:10AB900001D0002C00D170BDA86A00281FD02088E9
:10ABA000102806D011280ED0502807D0512814D1D3
:10ABB0000EE02146284602F0A2F90FE02146284681
:10ABC00002F0EEFA0AE02146284602F069FA05E0B2
:10ABD0002146284602F068FA00E000BF00BF00BF2F
:10ABE000D9E7000070B586B004460D461646002C25
:10ABF00002D10E2006B070BD20881A49884203D0C9
:10AC000019480078002801D10820F3E700210191BC
:10AC1000102168468288501C83B2144801938154E5
:10AC200068468188481C82B21048019245546846A3
:10AC30008188481C82B20D4801924654002002903F
:10AC4000039004900590218A684601810121817258
:10AC50000021818101A8049004480590208802A960
:10AC6000A6DFC7E7FFFF00006E2000206F20002056
:10AC700010B504462046FFF7C3FE2146084800F001
:10AC800059F8204602F082F82046FFF795FC21464D
:10AC90000448FFF779FF2046FDF7FEFC10BD0000D9
:10ACA000102100202C21002070B586B004460E46ED
:10ACB0001F4B0FCB01AD0FC5002C01D0002E02D1D0
:10ACC0000E2006B070BD0020C043A0823068A06195
:10ACD0000120A07500202070214601A863DF0546F1
:10ACE000002D01D02846ECE70121684681751E2120
:10ACF000C9438182A21C05A90120A0DF0546002DC1
:10AD000001D02846DDE73146204602F021FE054607
:10AD1000002D01D02846D4E73146204603F098FBA9
:10AD20000546002D01D02846CBE70020C9E70000EA
:10AD300088E9010070B505460C46002D01D0002CB5
:10AD400000D170BD2088102804D0112807D05028C9
:10AD50000FD109E02146284602F0CEF80AE021464C
:10AD6000284602F099F905E02146284602F0EEF95E
:10AD700000E000BF00BF00BFE3E7000037B584B0CC
:10AD800004460D46002C02D10E2007B030BDA08A2B
:10AD90000F49884202D0A07D002801D10820F4E7A5
:10ADA0006846008B142801DD0720EEE700200090A4
:10ADB000019002900390A18968460180039506A83E
:10ADC0000290012168468170A08A6946A6DFDCE70F
:10ADD000FFFF00007CB500BF002348222349082064
:10ADE00002F018FF054600BF2E46002E06D000BF19
:10ADF000002211463046FFF73DF800BF00BF00BFFC
:10AE000000200090019069460870684660DF0446A3
:10AE100000BF2546002D06D000BF0022114628465F
:10AE2000FFF728F800BF00BF114802F0E7FE044614
:10AE300000BF2546002D06D000BF0022114628463F
:10AE4000FFF718F800BF00BF0A4802F017FF0446DA
:10AE500000BF2546002D06D000BF0022114628461F
:10AE6000FFF708F800BF00BF7CBD00005C21002098
:10AE700071AC0100E9DF0100F8B500BF002020E05F
:10AE8000012181400F2252051140002918D000BF36
:10AE900001210A4600263746009653000B43B400B2
:10AEA00023433C022343009C24042343052424071A
:10AEB00007252D0264198500635100BF00BF00BF44
:10AEC000401C2028DCD300BF00BF0F2040050349F1
:10AED000C8600020886000BFF8BD00000005005079
:10AEE000F8B506460820009001236A4621493046FD
:10AEF000AADF0446204800688047B12044DF0446AA
:10AF000000BF2546002D06D000BF0022114628466E
:10AF1000FEF7B0FF00BF00BF11DF044600BF2546AB
:10AF2000002D06D000BF002211462846FEF7A2FFE2
:10AF300000BF00BF1149486913DF044600BF254622
:10AF4000002D06D000BF002211462846FEF792FFD2
:10AF500000BF00BF304600F07BFB1620012181407E
:10AF6000074A116000BF01F08FF80449486900F0FA
:10AF700009F8F8BD802F0020782000200010001074
:10AF800080E200E010B504462046FDF7A3F810BDAE
:10AF900070B50446002506480078C007C00F002899
:10AFA00003D0204600F006F80546284670BD000094
:10AFB0002420002001460020704700000146880040
:10AFC000014A105870470000D03000200146014867
:10AFD00040567047F0300020F0B587B03E4800780A
:10AFE000142148433C49091D4418E7680C21A06816
:10AFF00048433A494018008906900C21A06848430C
:10B0000036494018408905900C21A06848433349CF
:10B0100040184068049002F0F1F901460290384669
:10B02000FDF79EF8002901D1012000E000200390E7
:10B03000059906984843049946186088C019A18864
:10B0400045180020264908600398002804D002F023
:10B05000D5F9618888420AD00398002804D0B54207
:10B0600002D1A088002802D0A06802280CD102F0EA
:10B07000C5F9014602903846FDF772F81949086093
:10B08000032002F0A7FD24E002F0B8F90190A188A6
:10B09000C8190199FDF764F888081349086002F09F
:10B0A000ADF9014601902846FDF75AF8002901D173
:10B0B000012000E000200290B54206D0029800284E
:10B0C00003D1B1B2A8B202F0A5FF022002F082FDC6
:10B0D00000BF07B0F0BD000030310020FC3100207F
:10B0E000AC200020B0200020A820002010B5084887
:10B0F0000078142148430649091D44182078042883
:10B1000002D000F0A5F801E002F0FCFE10BD000046
:10B110003031002010B50F480078142148430D4904
:10B12000091D441860880C4908602078012804D063
:10B13000032805D0042809D105E002F0E3FE06E06B
:10B14000FFF74AFF03E003F0FDFA00E000BF00BF95
:10B1500010BD000030310020BC20002010B5034895
:10B160004078002801D0FFF7D5FF10BD3031002016
:10B170000023142141430C4A53541421414389189C
:10B180004B8001231421414389188B600023142133
:10B1900041438918CB601421414389180B61142164
:10B1A000414389188B80704734310020FFB581B04E
:10B1B000064617461C4840780A2830D01A480078BE
:10B1C0001949497844180A2C00D30A3C14206043DA
:10B1D0001549091D0E5414206043401807611420BE
:10B1E00060434118029805C8CA6088601421614311
:10B1F0000D4A121D8918049848801421614389184A
:10B200000A988880101F4078401C111F487007481A
:10B210000078002801D1FFF77DFF002500E004251C
:10B22000284605B0F0BD000030310020A4200020E9
:10B2300010B50020054908704870002403E020463E
:10B24000FFF796FF641C0A2CF9D310BD30310020A3
:10B2500010B50848007814225043064A121D811880
:10B260000020FEF7CBFE00F007F8002002F0B2FC51
:10B2700010BD00003031002010B509490878FFF7F3
:10B2800077FF07484078401E054948700846007817
:10B29000401CC0B208700A2801D10020087010BDFF
:10B2A00030310020FEB51F480068002836D01D4808
:10B2B0000068056802F0D4FA01901B480468214632
:10B2C000019802F0D3FEC61C18480078002801D16E
:10B2D00002F0D8FAAE4201D2284600E03046041906
:10B2E0002402240A204602F0B5FA02F0B9FA0090CE
:10B2F0000199009802F0BAFEC71C2046019902F09D
:10B30000B5FE874209D902F0ABFA074602F0A2FA6D
:10B310002F20FCF7F9FE03F057F801E002F0D0FA15
:10B32000FEBD0000D8200020DC200020F0200020FE
:10B3300001460888062808DB08881922D2019042B5
:10B3400005DD0888104A904201D0072070474888E0
:10B35000062808DB48881922D201904205DD48887A
:10B36000094A904201D00720F0E70888064A904237
:10B3700008D04888904205D008884A88904201DD6C
:10B380000720E3E70020E1E7FFFF0000FFB581B001
:10B3900006460D4614462088801D0499884202D92D
:10B3A0000C2005B0F0BD3046FFF7C2FF0746002F66
:10B3B00001D03846F5E70520218868542088401CD4
:10B3C00020801220218868542088401C20802288F8
:10B3D0005119308803F0ADF9218840182080228867
:10B3E0005119708803F0A5F92188401820800020A9
:10B3F000D7E710B5044600BF002211462046FEF7ED
:10B4000039FD00BF10BD000030B587B01C21684673
:10B41000FCF7E9FE002000900120C003019002909B
:10B420000321684601730021C181012101740B4889
:10B4300005900B4806906846FFF7A6FA044600BF41
:10B440002546002D06D000BF002211462846FEF7F3
:10B4500011FD00BF00BF07B030BD000071CE01007C
:10B46000F3B3010038B51F4800F04CFE002829D185
:10B470001D48007800280AD01C484069002820D0C8
:10B4800000200090194841696846884719E018482B
:10B490000078002802D11548456801E01348856806
:10B4A0000022294613480068FEF74EFE0446002C91
:10B4B00007D00E488069002803D00C4881692046D7
:10B4C00088470AE009484069002806D0012000901A
:10B4D000064841696846884700BF00200249087055
:10B4E00038BD0000642000206D200020102F0020B7
:10B4F0006020002084E9010010B514484068C105AF
:10B50000C90D002920D00A46103A50B200280DDAA1
:10B510000E4B1C330407240F083CA408A4001B593D
:10B520008407E40EE3401B069B0F0BE0084B03244B
:10B5300024021B198408A4001B598407E40EE3406D
:10B540001B069B0FD8B210BD0420FCE700ED00E005
:10B5500000E100E010B51C48006808210840002800
:10B560002FD11A480068401C184908601848006824
:10B57000002803D0042002F02DFD24E000F026FE78
:10B58000002803D0022002F025FD1CE011480068CD
:10B59000002813D00C480078C007C00F002809D13C
:10B5A000094800680121084307490860002002F0AB
:10B5B00011FD08E0032002F00DFD04E002F0DEFCC6
:10B5C00001E002F0EBFC10BDC0200020B020002004
:10B5D000A8200020AC20002010B50C4800680821ED
:10B5E000084000280FD109480068022108400028BF
:10B5F00005D006480068012108430449086002207C
:10B6000002F0E8FC01E002F0C9FC10BDC0200020FF
:10B61000F8B504460D462878002803D12088FFF7A6
:10B620005FFC12E0032201212046FFF7DBFA064609
:10B6300000BF3746002F06D000BF00221146384613
:10B64000FEF718FC00BF00BF00BF00BFF8BD000040
:10B6500070B58AB00646002003903F49304600F09E
:10B6600047FA0446002C75D104A93B4800F0CCF9F8
:10B670000446002C4ED100BF2546002D06D000BF49
:10B68000002211462846FEF7F5FB00BF00BF0898D0
:10B690000146103107223148FCF78CFD10222F485B
:10B6A000C01D0899FCF786FD11222C48183004991A
:10B6B000FCF780FD0498014612310A2227482A30FF
:10B6C000FCF778FD254800DF044600BF2546002D25
:10B6D00006D000BF002211462846FEF7CBFB00BF74
:10B6E00000BF012003900420019003A802900020D5
:10B6F00000906946184800F081F9044600BF2546CD
:10B70000002D06D000BF002211462846FEF7B2FBEE
:10B7100000BF1FE01149104800F020FA044600BFA6
:10B720002546002D06D000BF002211462846FEF710
:10B73000A1FB00BF00BF094800DF044600BF25464B
:10B74000002D06D000BF002211462846FEF792FBCE
:10B7500000BF00BF0AB070BD7C2000204C2F00202D
:10B760007047000001490860704700007820002001
:10B7700010B58EB004461C2107A8FCF734FD6846BE
:10B78000007F08218843411868460177007F102117
:10B790008843411868460177002008900A900B9072
:10B7A0000C900D90A1796846817128498180002014
:10B7B000009000BF684600780109090168460170E1
:10B7C0000078F02188436946087000BF00BF6846D2
:10B7D000407801090901491C684641704078F02110
:10B7E000884310306946487000BF6846807806215B
:10B7F0008843811C6846817080780821884301460F
:10B8000068468170807810218843411868468170AD
:10B81000807841084900491C68468170142102A8BB
:10B82000FCF7E1FC01A80290684603900021018228
:10B8300041821721818200200690A0882346103380
:10B8400002AA07A9A2DF0EB010BD0000311500004A
:10B8500010B58EB004461C2107A8FCF7C4FC68464E
:10B86000007F04218843011D68460177002008906D
:10B870000A900B900C900D90A1796846817128492F
:10B8800081800020009000BF68460078010909010E
:10B89000684601700078F02188436946087000BF4F
:10B8A00000BF6846407801090901491C684641709B
:10B8B0004078F021884310306946487000BF6846E0
:10B8C000807806218843811C684681708078082131
:10B8D000884301466846817080781021884301467C
:10B8E00068468170807841084900491C684681702B
:10B8F000142102A8FCF777FC01A802906846039087
:10B900000021018241821421818200200690A088BA
:10B910002346083302AA07A9A2DF0EB010BD00001B
:10B920003215000030B58FB004460D461C2108A822
:10B93000FCF759FC08A8007802218843811C08A85C
:10B940000170002009900B900C900D900E90A17941
:10B9500068468172284901810020019000BF684635
:10B96000007901090901491C684601710079F0213B
:10B97000884310306946087100BF00BF68464079AF
:10B9800001090901684641714079F02188436946FF
:10B99000487100BF6846807906218843811C68464B
:10B9A00081718079082188430146684681718079D8
:10B9B0001021884301466846817180794108490019
:10B9C000491C68468171142103A8FCF70CFC02A8ED
:10B9D000039001A804900221684681820021C1825F
:10B9E000022101830795A0882346203303AA08A9D2
:10B9F000A2DF0FB030BD0000341500000246014840
:10BA0000704700009180000070B58AB005460C4672
:10BA100000BF31480078002802D130480AB070BD1C
:10BA200000BF002D02D12D48801DF7E7002C02D168
:10BA30002A48801DF2E700BF2878012806DA287816
:10BA40000C21484326490858002801D12348E5E73E
:10BA500000BF00BFA878072807DAA8781C21484350
:10BA600020494018807EFF2802D11C480830D5E7C5
:10BA700000BF00BF0020E060A8781C21484319499E
:10BA80004118216100216161174860600020A060B9
:10BA900003A82060A97801AA144801F0BDFB06465E
:10BAA000002E17D11C231A4601A903A801F0F0FCAF
:10BAB0000646002E0ED1E060A8781C2148430949B3
:10BAC0004118216100216161074860600020A06089
:10BAD00003A820603046A1E78C20002008800000E9
:10BAE0008C300020882F00209830002080200020FB
:10BAF00030B50446002901D1154830BD00BF087893
:10BB0000012806DA08780C256843124D28580028C9
:10BB100002D10F48801FF0E700BFFF208870052387
:10BB200000220FE00C2050430B4D40190089A04229
:10BB300007D14A700C2050434019C07A8870002306
:10BB400002E0521C002AEDD000BF1846D5E70000E5
:10BB50000E8000008C3000208030002070B504463C
:10BB60000E4600BF29480078002801D1284870BD42
:10BB700000BF002C02D12648801DF8E7002E02D11C
:10BB80002348801DF3E700BF2078012806DA2078DB
:10BB90000C2148431F490858002801D11C48E6E7FA
:10BBA00000BF1B4DED1EA078FF2817D16078FF283D
:10BBB0002AD060780C21484317494018807A022126
:10BBC0000840022820D160780C225043124A811884
:10BBD00007223046FCF7EEFA002515E0A0781C217C
:10BBE00048430E494018807E0221084000280BD1AE
:10BBF000A0781C225043094A8018014610310722C0
:10BC00003046FCF7D7FA00252846B0E78C20002004
:10BC1000088000008C30002080300020882F002019
:10BC2000014614480078144A127890421DD01148F9
:10BC30000078401C0F4A107010460078022801D18D
:10BC4000002010700B48007880000C4A10580860E3
:10BC50000B4A086812688018094A1060104600688C
:10BC60000002000A1060012070470020086000BF39
:10BC7000FAE70000E8200020E9200020E020002072
:10BC8000DC20002010B50D4800680821084000287D
:10BC900010D10B480068401C0949086000F096FA72
:10BCA000002802D1FFF722FA06E00648007801F0EA
:10BCB00091FF01E000F074FC10BD0000C0200020E6
:10BCC000B0200020A420002010B5029C012907D03C
:10BCD000022904D0032905D0042904D101E002E09F
:10BCE00001E000E000BF00BF10BD0000F0B503465A
:10BCF000002420E0134E306806689E4203D906688F
:10BD0000F61A06601BE006689B1B066834190026BD
:10BD100006600C4E35680B4FC6693E60C668002E43
:10BD200008D00E193602360A4660C6688660166864
:10BD3000C661156000BF034800680028DAD100BF63
:10BD4000F0BD0000D8200020826883881A40036874
:10BD50009A5C0A708268521C8260704701468A6849
:10BD6000C868801A704701468A68C868801A704798
:10BD7000C26883881A4003689954C268521CC26022
:10BD8000704730B504461088C01C984201D90C2079
:10BD900030BD0220158848551088401C10800120B5
:10BDA000158848551088401C108015884C551088FF
:10BDB000401C10800020EBE710B50446002C02D098
:10BDC000112C08D100E00AE0064800680821084369
:10BDD0000449086003E02046FEF728F900BF00BFD1
:10BDE00010BD0000C020002010B50C480068401CA9
:10BDF0000A49086003280DD009480078022804D0B9
:10BE00000748007801F0E6FE07E00648007802F0F7
:10BE1000E1F802E00D20FEF709F910BDB420002082
:10BE2000A4200020A520002010B50A480078012891
:10BE300004D0022808D0032809D102E002F068F8F3
:10BE400006E0FFF71FFF03E002F0B8F800E000BFD4
:10BE500000BF10BDA420002070B50446204628DF96
:10BE60000546FFF7A9FF70BDF8B504460D46164616
:10BE700032462946204629DF0746FFF79DFFF8BDD9
:10BE800070B592B000BF08A8007F01090901491CE4
:10BE90000F9108A8007FF021884310300F9000BF59
:10BEA0000026202105A8FCF79EF9274A07CA05AB02
:10BEB00007C30DA871DF044606220DA9013108A8A9
:10BEC000FCF778F90DA88179427900790DABDB7820
:10BED00000930292039101900DA8837808A8427DF7
:10BEE0001AA1FDF711FC064630460C3082B205A9B6
:10BEF0000FA87CDF044600BF2546002D06D000BFFA
:10BF0000002211462846FDF7B5FF00BF00BF002004
:10BF100010901190062110A801803C214180002141
:10BF20008180FF219131C1807ADF044600BF254620
:10BF3000002D06D000BF002211462846FDF79AFFCB
:10BF400000BF00BF12B070BDFC2D00202578257801
:10BF500025782578257825780000000010B5184848
:10BF6000006808210840002826D100F085F9002843
:10BF70000CD00020134908601148006801210843D3
:10BF80000F490860002002F025F817E000F01EF9C4
:10BF9000002806D000200B490860022002F01AF8A1
:10BFA0000CE009480068002803D0032002F012F8D2
:10BFB00004E001F0E3FF01E001F0F0FF10BD00003C
:10BFC000C0200020A8200020AC200020F8B529487F
:10BFD0000078002800D1F8BD27480068002801D16A
:10BFE000012000E00020054624480068002801D117
:10BFF000012000E00020064600BF002D14D1684655
:10C0000051DF0446052C01D101250CE0002C06D09F
:10C0100000BF002211462046FDF72CFF03E0164921
:10C0200000980968884700BF002E1AD1144800887C
:10C03000009069461348006861DF0446052C01D171
:10C0400001260DE0002C06D000BF0022114620463C
:10C05000FDF710FF04E00B480068084909688847AD
:10C0600000BF002D02D0002E00D000E0C5E700BFC9
:10C0700000BFB0E7F82000200821002004210020A4
:10C0800000210020FC20002010B50B490A68002088
:10C090000FE0012181401140002909D041B2CC06B6
:10C0A000E40E0123A340044C8034236000BF00BF92
:10C0B000401C2028EDD310BD00E100E0FEB5044691
:10C0C00000200090019002216846018000214180FB
:10C0D00002A80190A18A20886A46A5DF0546002DA6
:10C0E00007D0E06A002802D02846E16A884700208D
:10C0F000FEBD02AE304602F016FB0746F807C00F41
:10C1000000BFF5E701464888064A1288904206DBE0
:10C110004888044A5288904201DC01207047002080
:10C12000FCE70000582000200C48008CC0B2012819
:10C1300012D10A48808C0007000F00280CD1074854
:10C14000806AF0210840402806D10448C06A0840AF
:10C15000002801D1012070470020FCE7C00F00F04B
:10C160001948008CC0B201282CD11748808C0007D8
:10C17000000F002826D11448806AF02108400028CA
:10C1800006D11148C06A0840002801D1012070473B
:10C190000D48806AF0210840102806D10A48C06A7C
:10C1A0000840002801D10120F1E70748806AF0210A
:10C1B0000840302806D10448C06A0840002801D150
:10C1C0000120E4E70020E2E7C00F00F0F8B51248D4
:10C1D0000078142148431049091D4518EF6801F003
:10C1E0000DF900906988C919AA888918481E009914
:10C1F000FBF7B6FF064609480068B04207D3074878
:10C200000068B04205D106480068002801D1012429
:10C2100000E000242046F8BD30310020B02000208E
:10C22000AC2000201348008CC0B201281FD1114857
:10C23000808C0007000F002819D10E48806AF02179
:10C240000840A02806D10B48C06A0840002801D148
:10C25000012070470748806AF0210840D02806D1A5
:10C260000448C06A0840002801D10120F1E70020FD
:10C27000EFE70000C00F00F0F8B510480078142177
:10C2800048430E49091D4518EE6801F0B7F80090C3
:10C2900069888919AA888918481E0099FBF760FFE8
:10C2A000074607480068002805D006480068B842DD
:10C2B00001D1012400E000242046F8BD30310020E7
:10C2C000AC200020B020002001468807800F002805
:10C2D00001D1012070470020FCE730B504461088EA
:10C2E000C01C984201D90C2030BD02201588485549
:10C2F0001088401C10801C20158848551088401C50
:10C300001080012C06D0022C08D0032C0AD0042C5B
:10C3100010D10BE00020158848550DE0012015884C
:10C32000485509E002201588485505E00320158886
:10C33000485501E00720D7E700BF1088401C108057
:10C340000020D1E7F8B52148006800902048067821
:10C350002EE0F0001F4909684418257824E01820D1
:10C36000684361680F18681CC5B2A078A84200D164
:10C3700000253878022802D0032812D103E078681B
:10C3800001F054FF0EE007E0104908680021017435
:10C390000E4AC169116000BF0C4800680028F3D143
:10C3A00000E000BF00BF00BF6078A842D7D100BF47
:10C3B0003046711ECEB20028CBD1044801680098E7
:10C3C000814201D00120F8BD0020FCE7D8200020E8
:10C3D000D0200020D4200020FEB506463C4800684E
:10C3E00001903C480078009063E00098C0003A4912
:10C3F0000968451856E0002E02D03446E66924E06C
:10C400002978182359436A6850182978491C2970DB
:10C410002978AA78914201D10021297044680178D5
:10C42000012902D1217C002900D03BE081686160B4
:10C43000C168A1600169E1604169A161274909788A
:10C44000002901D00021616000BF254960680968AA
:10C45000401A0002000A2349884208D22049606835
:10C46000096801F003FEA168401820600FE01C4835
:10C470006168006801F0FAFD0746A068B84203D978
:10C48000A068C01B206001E00020206000BF0020E9
:10C490006060A060012020740020E061204601F06F
:10C4A0008FFE00BF002EA6D1287869788842A2D1DD
:10C4B00000BF0098411EC9B20091002895D10448E0
:10C4C00001680198814201D00120FEBD0020FCE7F7
:10C4D000D8200020D0200020D4200020F1200020EF
:10C4E000DC200020FFFF7F00FCF754F800BF002392
:10C4F000294A05211846FDF7CBFD054600BF2E460B
:10C50000002E06D000BF002211463046FDF7B2FCD7
:10C5100000BF00BF00BF02F0D5F8FCF777FDFEF7C3
:10C52000ABFCFBF7CEFEFCF713F80A2001F0A4FDEC
:10C53000FEF750FCFFF7A4FCFCF742FDFCF7B4F952
:10C5400001F02CFBFDF73AFCFEF75EFF0320FEF73F
:10C55000BDF8044600BF2546002D06D000BF0022CE
:10C5600011462846FDF786FC00BF00BF00BFFCF760
:10C5700015F9002807D000BF012000060749C86050
:10C5800000208860F3E700BF0120000603498860AF
:10C590000020C860EBE70000A42300200005005045
:10C5A00010B505480068082188430349086003481E
:10C5B000007801F00FFB10BDC0200020A420002057
:10C5C000FFB581B005460E461446A888871C208812
:10C5D000801CC1190498814202D90C2005B0F0BD1D
:10C5E000FE2F01D90C20F9E7781C2188705420888F
:10C5F000401C2080FF20218870542088401C20800F
:10C6000022889119288802F094F821884018208007
:10C61000A88800280EDDA868002801D10720DDE7E2
:10C62000AA8823889819A968FBF7C4FD2088A988DF
:10C63000401820800020D1E7FFB583B005460F46A3
:10C6400014462878012805D16878002802D10720EF
:10C6500007B0F0BD2088801C0699884209D8287848
:10C66000012808D12088801C6978411806988142E9
:10C6700001D90C20ECE721880698401A801E86B26A
:10C6800001962188891CC81901A97DDF02900298B2
:10C69000002801D00298DBE72878022806D16846F6
:10C6A0008088B04202DC092000900BE00820009056
:10C6B0002878012805D16878B04202DC68780190BA
:10C6C00000E0019668468088FE2801D90C20BFE76B
:10C6D00068468088401C218878542088401C20802F
:10C6E0002188009878542088401C20802188684642
:10C6F0008088081820800020AAE7000070B5044652
:10C700000D4629462046FCF7B9FD00BFE106C90EDB
:10C71000012088400549086000BF00BFE106C90E3E
:10C72000012088400249086000BF70BD80E200E03F
:10C7300000E100E010B504460C21206800F0B7FAD3
:10C7400010BDF8B505460C4616461F4601200004EC
:10C75000A0400090012F04D12868009900F09AFAB7
:10C7600003E02868009900F090FA2B68A1001522D8
:10C7700092019818465000BFF8BD01468800FF306E
:10C78000413080B27047000010B504460021206897
:10C7900000F08DFA02206179014A505410BD00006A
:10C7A000C8200020F8B505460E4617461C46FF2255
:10C7B0000132B2400123B3401A431146286800F009
:10C7C0006EFA2868012149020958214301225202C8
:10C7D000115000BF3A4631462846069BFFF7B1FF8D
:10C7E000F8BD000070B504460D46164660792D4927
:10C7F000085C002801D0082070BD002D03D16079AD
:10C80000C0002949451829492068884201D10720DC
:10C81000F2E7E97804202056FFF770FF617989007C
:10C82000234A68685050002E04D060798000214966
:10C830000E5001E00720DFE7697820680522120228
:10C840008218526852085200CB07DB0F1A430523A7
:10C850001B02C3185A6000BFA97820680522120283
:10C8600082189268920892008B079B0F1A43052347
:10C870001B02C3189A6000BF2978206805221202A3
:10C8800082181269120912010B071B0F1A430523A4
:10C890001B02C3181A6100BF01206179014A50547C
:10C8A0000020A9E7C820002010EA01000080004015
:10C8B000CC200020C4200020F8B504460F460025F7
:10C8C00029E02846FFF759FF0646204631464258E0
:10C8D000002A01D0012200E00022002A1AD0012003
:10C8E0000004A84003210902611849680140002999
:10C8F00001D0012100E0002100290BD03146204663
:10C9000000F0B9F9B800054B1958B800044B1A5893
:10C91000304690476D1C042DD3D3F8BDCC200020A9
:10C92000C4200020F8B504460D467D267602206816
:10C9300000F0A4F907463046F84068438008F8BD87
:10C9400070B504460D461A48807D002801D00820A5
:10C9500070BD002C00D1174C2046FDF7F7FC1448A1
:10C9600045601349206908600846406800280AD0DD
:10C97000267F1149114800F0C0F931460220FFF727
:10C98000BDFE00BF00BF00BF00BF04200B49052251
:10C9900012028918086000BF00BF00200449C87453
:10C9A0008874012088750020487500BFD0E700001A
:10C9B00018310020C8E9010080000200002000407A
:10C9C000F3B581B006463448C07C002801D0112060
:10C9D000FEBD31490298C8740846C660002008753B
:10C9E0000846407D002801D101F060F82A484068DF
:10C9F00000284AD100BF00BFFF212531274800F0A1
:10CA000063F90546FF210931244800F05DF9074626
:10CA1000FF214531214800F057F90446002F03D18A
:10CA2000002C01D1002DE7D0002D01D1002C00D029
:10CA300007E000F071FF1848C07C1749097D884263
:10CA4000D9DC00BFFF214531144800F045F9FF2132
:10CA50002531124800F040F900200F49C874002D1C
:10CA600001D00320B4E7002C01D00F20B0E70A4822
:10CA7000407D002804D00021084800F04FF903E071
:10CA80000421064800F04AF904E0812189000348A6
:10CA900000F033F900209BE718310020002000400F
:10CAA00010B50548407D002804D100F0FFFF0120AB
:10CAB0000149487510BD00001831002070B50446CA
:10CAC0000D4600262848807C002801D0112070BD2A
:10CAD000254885748460002023490882FF211D3188
:10CAE000224800F0F9F80821204800F017F901F079
:10CAF00093FC1D484068002833D115E000BFFF219A
:10CB00001D311A4800F0E0F8002805D11648008AC7
:10CB1000FF2101318842F2D11348008AFF210131FF
:10CB2000884201D001F078FC0F48807C0E49098AC8
:10CB30008842E3DC0C48008AFF210131884201D1A0
:10CB40000F260BE000BFFF211D31084800F0BCF8A4
:10CB50000028F8D00C21054800F0E0F80020024938
:10CB600088743046B3E700001831002000200040F0
:10CB7000F0B5059C55000D439E0035432602354314
:10CB8000069E360435430526360707273F02F61969
:10CB90008700F551F0BDF0B5059C55000D439E0092
:10CBA000354326023543069E3604354305263607AF
:10CBB00007273F02F6198700F551F0BD7CB5054601
:10CBC0000C4600200090234602460146019028466C
:10CBD000FFF7E1FF7CBD1CB5044600200090034632
:10CBE0000122114601902046FFF7D5FF1CBD10B56C
:10CBF0000522120707231B02D2188300D2580323F1
:10CC00001B049A4305231B07072424021B198400D5
:10CC10001A510522120707231B02D2188300D2588B
:10CC20000B041A4305231B07072424021B19840045
:10CC30001A5110BD01218140014A916070470000E6
:10CC40000005005001460148081870470060004088
:10CC500010B504462046FFF7F5FF0021016010BD26
:10CC600010B504462046FFF7EDFF0068012800D10B
:10CC700010BD0020FCE7002242507047014605200D
:10CC8000000208180069C0B270470322120282181D
:10CC9000916070470322120282185160704701228E
:10CCA000520212588A4301235B021A507047012234
:10CCB0004250704701460922D2018A1810680922A1
:10CCC000D2018A181060704702465058002801D0DF
:10CCD000012070470020FCE70022425070470523E6
:10CCE0001B02C318996005231B02C3181A61704701
:10CCF00003221202821891607047032212028218E6
:10CD00005160704702460320000210184068084036
:10CD1000002801D0012070470020FCE7012242508A
:10CD2000704705231B02C318D96005231B02C318D3
:10CD30005A617047F8B507460D461646002406E0CE
:10CD400000BF285DFDF7C4FA0028FAD1641CB44284
:10CD5000F6D3F8BD70B50546002D12D0032D11D1C4
:10CD60000220FEF715F9044600BF2646002E06D025
:10CD700000BF002211463046FDF77CF800BF00BF1F
:10CD800001E000E000BF00BF70BD000070B50546C7
:10CD900000242888102806D011281ED0132837D048
:10CDA00052285DD148E0FBF7E1FB00BF0120C00540
:10CDB0002D49C8600020886000BF00BF2646002EB5
:10CDC00006D000BF002211463046FDF753F800BFE1
:10CDD00000BFA8882549088043E000BF0120C005A6
:10CDE000214988600020C86000BFFBF7C9FB00BF75
:10CDF0002646002E06D000BF002211463046FDF721
:10CE000039F800BF00BF0020C0431849088028E05F
:10CE100000231A468521154800887FDF044600BF9D
:10CE20002646002E06D000BF002211463046FDF7F0
:10CE300021F800BF00BF14E000231A4619460B4832
:10CE40000088A9DF044600BF2646002E06D000BF9A
:10CE5000002211463046FDF70DF800BF00BF00E08C
:10CE600000BF00BF70BD0000000500500020002082
:10CE700070B505462878002810D13B210848008865
:10CE800076DF044600BF2646002E06D000BF0022F3
:10CE900011463046FCF7EEFF00BF00BF70BD00003A
:10CEA0000020002010B504460822A11D0248FBF70F
:10CEB00081F9FEF7D7FA10BD6420002010B50446B2
:10CEC000A088094908800822214616310748FBF747
:10CED00071F90020064908700648C089002801D170
:10CEE000FEF7C0FA10BD0000622000206420002080
:10CEF00060200020102F00208A88828270478A8854
:10CF00000280704770B588B004460D46022069461D
:10CF100008742046FFF7D2F8002808D1FF20FE3021
:10CF200069468882208804A9A8DF08B070BD002067
:10CF300069468882208804A9A8DF0646002E01D011
:10CF40003046F2E700BFA87E0300FCF7F1FB097949
:10CF5000061D343C444C7154790000206946087128
:10CF6000288B022805DAA97E06222046FDF73AFE24
:10CF7000DBE7012101A8017228461B30029001A9BC
:10CF80002046A26A904761E0012069460871288B1B
:10CF9000022805DAA97E06222046FDF723FEC4E713
:10CFA000012101A8017228461B30029001A92046E8
:10CFB000A26A90474AE002206946087101A920460A
:10CFC000A26A904742E003206946087101A9204601
:10CFD000A26A90473AE004206946087101A92046F8
:10CFE000A26A904732E005206946087101A92046EF
:10CFF000A26A90472AE0288B032805DA0322082139
:10D000002046FDF7EFFD90E728461B3001F08BFB33
:10D01000694608810889002802D10720087102E0CA
:10D0200006206946087101A92046A26A90470DE0D2
:10D0300009206946087101A92046A26A904705E0C7
:10D04000A97E03222046FDF7CDFD6EE700BF00203C
:10D050006BE7000070B505460020C0430A49088010
:10D0600000200A4908700A480068FDF799F804464C
:10D07000002C07D007488069002803D00548816943
:10D080002046884770BD00006220002060200020FC
:10D0900084E90100102F00200022D24382827047D1
:10D0A0000022D24302807047F8B505460C46A61D03
:10D0B000307802281AD17088298A884216D1A07A3D
:10D0C000042813D0A07A062810D0A07A05280DD005
:10D0D000B11C2846FFF716FF0746002F05D0E86A67
:10D0E000002802D03846E96A884700BFF8BD000032
:10D0F00070B50546AC1D20881249C989884220D1E7
:10D10000208B02281DD100BF00BFA17EE27E12024B
:10D1100011430846C107C90F002902D0FEF7A2F942
:10D120000FE009480068FDF73BF80646002E07D0DF
:10D1300004488069002803D0024881693046884746
:10D1400000BF70BD102F002084E9010070B50446B7
:10D150000E46B51D2988208A814213D1288B0228CA
:10D1600010D100BF00BFA97EEA7E1202114308461B
:10D17000C107C90F002902D00120A0750FE00020CF
:10D18000A0750CE02888A188884208D1A0690028F1
:10D1900005D02A8B29461A312046A369984770BDCD
:10D1A0003EB505460C46E088298988420DD1082005
:10D1B00069460870A17F68460172204620300190C0
:10D1C00069462846AA6A904700BF3EBD0246002134
:10D1D00005E0505C002801D001207047491C062959
:10D1E000F7D30020F9E70000014600BF08480068B7
:10D1F00004221040002801D10820704700BF0029F8
:10D2000001D10E20F9E70348407808600020F4E7D8
:10D21000C0200020303100203CB5034600BF254827
:10D22000006804242040002801D108203CBD00BF34
:10D23000002B01D10E20F9E7002A01D10E20F5E7DD
:10D240001868002806D10C24186860431A4C20582E
:10D25000002801D10720E9E75C6818680194009074
:10D26000019C0C2518686843134D401900894843F8
:10D27000201801900C24009860432C460019408926
:10D280000C25009C6C430C4D6419248960430C25CB
:10D29000009C6C43084D641964680019019CA0420D
:10D2A00001D80720C2E7019C00985460106000205C
:10D2B000BCE70000C0200020FC310020FEB5044681
:10D2C0000D4600BF4148006804210840002801D1F4
:10D2D0000820FEBD00BF002C01D10E20F9E7206818
:10D2E000002806D10C2120684843394908580028F5
:10D2F00001D10720EDE70C2120684843344940184C
:10D3000040890C2221685143314A891809894843D0
:10D310000C22216851432E4A8918496840186168D7
:10D32000884201D80720D4E76068FEF7CDFF0028C7
:10D3300001D11020CDE70C2320685843244BC0189E
:10D3400062684068101A00900C22206850431A4608
:10D35000801801890098FAF703FF002901D00720FF
:10D36000B7E70C2220685043194A801801892846E3
:10D37000FAF70CFF002901D1002D01D10720A8E701
:10D380000C21206848431249401806890C22216864
:10D3900051430F4A891849894E43606847190C2147
:10D3A0002068484311464018406880190190019850
:10D3B000874201D907208CE700202B4602462146F0
:10D3C00000900320FDF7F2FE83E70000C02000205C
:10D3D000FC31002070B508484469601C002807D063
:10D3E00000F00CF8054629462046FAF7B9FE70BD54
:10D3F000012000074069FAE7001000100120000733
:10D40000006980B27047000010B5FDF711FF0020E1
:10D4100017490880FFF7DEFF841EFFF7EFFF444344
:10D420001448046000201449086000BF0DE0002289
:10D430000C214143114B5A500C214143C9180A8118
:10D440000C214143C9184A81401C0028EFD000201C
:10D450000B4908700B4908600B4908600B490860CC
:10D46000094800680421084307490860002010BDEE
:10D470009C200020A0200020B0200020FC310020B3
:10D48000A4200020B4200020C0200020B8200020CC
:10D49000FFB581B00C4615461E4600BF39480068EE
:10D4A00004210840002802D1082005B0F0BD00BFCB
:10D4B000002C01D10E20F8E70198002801D10E20A0
:10D4C000F3E72068002806D10C21206848432E4944
:10D4D0000858002801D10720E7E70C2120684843BD
:10D4E0002949401840890C2221685143264A89184D
:10D4F000098948430C2221685143234A8918496805
:10D5000040186168884201D80720CEE7002D07D077
:10D510000C21206848431C4940180089A84201DAC0
:10D520000720C2E7A9190C2220685043164A801828
:10D530000089814201DD0720B7E70198FEF7C4FEAC
:10D54000002809D03046FEF7BFFE002804D06068EE
:10D55000FEF7BAFE002801D11020A6E76068811905
:10D560002A460198FAF726FE00950C2120684843C8
:10D5700005490F58002202212046019BB847002090
:10D5800093E70000C0200020FC310020F8B50446DD
:10D590000D4600BF4148006804210840002801D121
:10D5A0000820F8BD00BF002C01D10E20F9E7002DA6
:10D5B00001D10E20F5E72068002801D10E20F0E708
:10D5C000FFF71CFFA188884202DBA088102801DA3F
:10D5D0000720E6E7E08800280DD0FFF7FBFE471E96
:10D5E000FFF70CFF4743E088A18848432C490968AE
:10D5F0004018874201D20720D3E720798007800FA7
:10D60000002801D00720CCE726480088012801D156
:10D610000420C6E723480088286021480068686025
:10D62000204800880C2250431F4A801869684160D6
:10D630001C4800880C2250431B4A21681150A188C5
:10D64000184800880C225043174A80180181E1884D
:10D65000144800880C225043134A80184181FFF778
:10D66000CDFE0090FFF7CAFEA188E2885143401822
:10D67000471E38460099FAF789FD0646FFF7BEFEB9
:10D680007043074909684018054908600548008843
:10D69000401C04490880002083E70000C0200020CF
:10D6A000A02000209C200020FC310020F8B504467A
:10D6B0000E4615461F4600BF324800680421084048
:10D6C000002801D10820F8BD00BF002E01D10E2096
:10D6D000F9E7002C01D10E20F5E72068002806D1DB
:10D6E0000C212068484328490858002801D1072008
:10D6F000E9E70C21206848432349401840890C225F
:10D7000021685143204A8918098948430C2221681D
:10D7100051431D4A8918496840186168884201D8F8
:10D720000720D0E7002D07D00C2120684843164978
:10D7300040180089A84201DA0720C4E7E9190C2241
:10D7400020685043104A80180089814201DD07207B
:10D75000B9E73046FEF7B8FD002809D03846FEF795
:10D76000B3FD002804D06068FEF7AEFD002801D1AB
:10D770001020A8E72B463246214601200097FDF7EE
:10D7800015FDA0E7C0200020FC31002010B50446A4
:10D790000F480078002819D00D480078042815D0CB
:10D7A000022C02D0032C0FD102E0FEF73DFB0CE06F
:10D7B0000848006808210840002802D1FEF714FB41
:10D7C00001E0FEF731FB00E000BF00BF10BD00002C
:10D7D000A4200020C020002070B51C4800881C49EF
:10D7E000884220D013211948008876DF044600BF04
:10D7F0002546002D06D000BF002211462846FCF722
:10D8000039FB00BF00BF0020FDF7C2FB044600BF8C
:10D810002546002D06D000BF002211462846FCF701
:10D8200029FB00BF01E0FCF705FBFDF717F90446F3
:10D8300000BF2546002D06D000BF00221146284615
:10D84000FCF718FB00BF00BF70BD000000200020E7
:10D85000FFFF0000014908607047000040150140CB
:10D8600001484068704700000015014010B50446AB
:10D870000348846003211120FBF73CFD10BD00002C
:10D880000015014010B5012000040A49486009490B
:10D89000403948601120FBF7D3FC1120FBF7DAFC7C
:10D8A0000120054908602F20FAF72EFC01200349CA
:10D8B000087010BD4013014000100140F02000200E
:10D8C00010B51120012181400E4A116000BF0120D6
:10D8D00000040D4988600C494039886001200B49DB
:10D8E00048602F20FAF710FC0120084988600020CA
:10D8F000074908602F20FAF707FC00200549087047
:10D9000010BD000080E100E0401301400010014024
:10D91000DC200020F020002010B5FF2109310A484A
:10D92000FFF7DAF900BF08480521090240188069AD
:10D93000C0B20649C968054A127D88540348007D73
:10D94000401C0249087510BD00200040183100201D
:10D9500070B590B004460E4600250020089000BF28
:10D9600008A8007801090901491C08A8017000787D
:10D97000F0218843103008A9087000BF00BF08A834
:10D98000407801090901491C08A841704078F0213C
:10D990008843103008A9487000BF08A88078062185
:10D9A0008843811C08A881701C2109A8FAF71BFC78
:10D9B00008A8007910218843411808A801710020A7
:10D9C0000A900C900D9008A80E9000200F902178DE
:10D9D000684681721D21C94301810020019000BF6A
:10D9E0006846007901090901491C684601710079FE
:10D9F000F021884310306946087100BF00BF6846B7
:10DA0000407901090901491C684641714079F021BA
:10DA1000884310306946487100BF68468079062106
:10DA20008843811C684681718079082188430146BA
:10DA3000684681718079102188430146684681716A
:10DA4000807941084900491C68468171142103A866
:10DA5000FAF7C9FB02A8039001A8049001216846C7
:10DA600081820021C18214210183608823460C3306
:10DA700003AA09A9A2DF0546284610B070BD000020
:10DA80001FB50446012069460870684604720648BE
:10DA9000C068019000200449C874084601684268C3
:10DAA000684690471FBD00001831002010B5FF21C7
:10DAB00025310648FFF710F9FF2109310348FFF728
:10DAC0000BF900210148FFF729F910BD00200040A3
:10DAD00030B504461088C01C984201D90C2030BDD6
