:020000040001F9
:10800000783A002029810100438101009596010002
:108010000000000000000000000000000000000060
:108020000000000000000000000000004781010087
:108030000000000000000000498101004B810100A8
:108040004D8101004D8101003D9A01004D810100EB
:108050004D81010000000000099501004D810100E3
:108060004D8101002D9A01004D8101004D810100DB
:108070004D8101004D8101004D8101004D810100C4
:108080004D810100DD9701004D8101004D8101000E
:10809000059801004D8101000D9801004D810100FE
:1080A0004D8101004D810100000000000000000032
:1080B00000000000000000000000000000000000C0
:1080C0000348854600F090FA0048004711CF0100B0
:1080D000783A0020056885F308884068FF2464B278
:1080E000EFF30585002D01D1A6460047254606463B
:1080F00021273FBAF0B40024002500260027F0B461
:10810000F92040B200470000401E00BF00BF00BF82
:1081100000BF00BF00BF00BF00BF00BF00BF00BF67
:1081200000BFF1D1704700000321094802680A43EB
:108130000260084802680A4302600748804707480F
:108140000047FEE7FEE7FEE7FEE7FEE7FEE700008A
:108150002405004054050040C9990100C180010078
:1081600030B50B46014600202022012409E00D46CF
:10817000D5409D4205D31D469540491B2546954057
:1081800040191546521E002DF1DC30BD70B500249B
:108190002546002801DA01244042002901DA0125A0
:1081A0004942FFF7DDFFAC4200D04042002C00D036
:1081B000494270BD03460B439B0703D009E008C941
:1081C000121F08C0042AFAD203E00B780370401C87
:1081D000491C521EF9D27047D2B201E00270401C15
:1081E000491EFBD270470022F6E710B513460A4637
:1081F00004461946FFF7F0FF204610BDF0B51FB446
:108200000646002082B005464024019100901BE004
:10821000019922460F46304600F008FA049A059B61
:10822000801A994110D310461946224600F0EEF903
:10823000361A8F410197224601200021009F00F04D
:10824000E5F938184D4100902046641E0028DFDC17
:10825000019B00982946324607B0F0BDF0B50746AD
:108260000846584087B0C00F049048000E46590099
:1082700040084908BC1A884105D2384631461E4696
:1082800017460B4602465800400810434CD0300DAC
:10829000039040055900400D490D0590401A029089
:1082A000402872DA18030121000B090508430190E8
:1082B00004980092002805D001995242002088417C
:1082C00000920190029840210A1A0199009800F04A
:1082D0009DF905460C466B4607CB00F0B8F9C0196E
:1082E0007141039A0E0D0023D71756401A467A4063
:1082F000164344D0049A002A2DD0029A012A039AE8
:1083000015DC1205C01A914101263605001C714189
:10831000D20F059ED2070093019202962A46234669
:1083200000F0B5F907B0F0BD38463146FAE716055A
:10833000224A0F46B218C01AB74101210905001C94
:108340004F4100187F41114618187941E20F104340
:108350006D19644113E0E2076D0815436408C20714
:108360001443039A01261205C01A91413605001CD8
:108370007141CE07400830434908C01851412A4690
:10838000234600F077F9CDE7FFE70498012240008B
:10839000C117121A00238B4104983146C417381AAA
:1083A000A141EEE730B40124E407634030BC55E757
:1083B00030B40124E407614030BC4FE70000E0FF27
:1083C000F0B51FB488B00B9909980024484009996A
:1083D000C00F490049080991C0070B990090490056
:1083E00049080B9109990898A64608431CD00B9997
:1083F0000A98084318D0099801244000420D48000B
:10840000410D099824050003000B204309900B98A7
:108410000003000B20430B9050181C494018002209
:1084200001901446104605E0002001460DB0F0BD55
:10843000032801DA034600E003239C46C11A0AAE72
:108440000AE05F0008ADED5B4F00F75B7D4300275E
:10845000AA187C41491C5B1E6145F2DD410004AB5A
:108460005A522104120C0A43240C401C0828DFDB5A
:10847000019802900099704601910090059B049A22
:108480000799069800F003F9D0E700000DFCFFFF04
:10849000F0B50C465C4085B0E40FE40703944C0053
:1084A0000026640859009446490802460296224371
:1084B00021D062460A431ED06200570D4A000E03C7
:1084C0002303550D012402462C492405781B1B0B60
:1084D000360B401823432643614600901C46501A31
:1084E000B44103D30098401C009002E09218009819
:1084F0005B41002803DA0020014605B0F0BD0020F2
:10850000012109050746864611E064461D46141BF5
:10851000B54106D36546521BB341744607430C432D
:10852000A646CD0740084908284392185B410546F6
:108530000D43EAD11046184313D060461946504007
:108540007140084306D06046101AB34106D201229A
:10855000002306E000220123DB0702E00122D243D0
:108560005310009874460105381C6141029C039D1C
:108570000019694100F07EF8BFE70000FD0300002C
:108580004A0009030123090B1B0519430A4B10B5C7
:10859000520D9A4202DA0020014610BD064B3433D8
:1085A0009A4203DC9A1A00F041F810BD034BD2182E
:1085B00000F02CF810BD0000FF030000CDFBFFFF12
:1085C00010B5002904DB0124E40740428C41214618
:1085D000002B04DB1C460123DB075242A3419942D6
:1085E00000D1904210BD0000064C0125064E05E06A
:1085F000E36807CC2B430C3C98471034B442F7D3C4
:10860000FFF762FD3CF501005CF5010010B5202A82
:1086100004DB0146203A9140002010BD9140202308
:108620009C1A0346E3401943904010BD10B5202A20
:1086300004DB0846203AD040002110BD0B46D34051
:10864000D0402024A21A91400843194610BD10B50D
:10865000202A06DBCB170846203A1041C1170B43EE
:1086600006E00B461341D0402024A21A9140084353
:10867000194610BD10B5002B08DA0024401C6141DA
:1086800092185B411A4301D14008400010BDF0B57B
:108690001FB482B005460C0003D0084601F090FAE2
:1086A00002E001F08DFA2030024600902146284673
:1086B000FFF7ACFF049B059A04460F46184311438D
:1086C000084314D0184610431BD0009840210A1AC2
:1086D00018460599FFF7AAFF05460E46009A059928
:1086E0000498FFF793FF084305D0012004E02046DB
:1086F000394607B0F0BD0020C11705430E432C4397
:10870000374300990E986305401A7905E40A002260
:108710000C43FD0A0A3002D500200146E9E70105B5
:10872000101969410C9C0D9D00196941FFF7A2FFCA
:10873000DFE77CB500BF1C25032400200090234602
:10874000024601460190284604F026FF00BF00BF04
:108750007CBD0000F0B58FB006460F4600242021F6
:1087600005A8FFF740FD00250DA871DF0DA8807951
:108770000DA949790DAA12790DABDB78009301920E
:10878000029103900DA8837808A8427D07A105A84F
:1087900001F0F0F9C5B200BF04E005A9085D02F0E0
:1087A00003FA641CAC42F8D30FB0F0BD2B4C454D1E
:1087B00041433A25783A25783A25783A25783A257A
:1087C000783A25780D0A0000F0B591B007464021AF
:1087D00001A8FFF708FD002600240025124800F03C
:1087E0006DFE12A101A801F0C5F9C4B201A90819D2
:1087F0000C220D49FFF7DEFC01AA21460C3150186E
:108800000DA101F0B7F921460C314018C6B200BFE6
:1088100005E001A9485D02F0C7F9681CC5B2B54280
:10882000F7DB11B0F0BD0000FC2D00202B4C454EB5
:10883000414D453A000000000D0A0000F0B589B036
:1088400006460C460027202101A8FFF7CCFC002596
:108850000C2C00DD0C24224631460D48FFF7AAFC03
:108860000B4800F03BFE0BA101A801F083F9C7B251
:10887000002508E000BF01A9485D02F095F9002835
:10888000F9D1681CC5B2BD42F4DB09B0F0BD0000EF
:10889000FC2D00204F4B0D0A0000000070B505466E
:1088A0000C4618A1284601F067F8002803D1E1B270
:1088B0002846FFF74FFF16A1284601F05DF8002873
:1088C00003D1E1B2284600F03DF814A1284601F09A
:1088D00053F8002803D1E1B22846FFF775FF13A132
:1088E000284601F049F8002806D120460B38C1B2CD
:1088F00028460B30FFF7A2FF0FA1284601F03CF8F5
:1089000070BD000041542B4C454D41433F0D0A00C2
:1089100041542B5645523F0D0A00000041542B4C48
:10892000454E414D453F0D0A0000000041542B4C7F
:10893000454E414D453D000041542B555241544553
:108940003D000000F0B591B00746402101A8FFF7B7
:108950004AFC00240025002611A101A801F00AF913
:10896000C4B201A908190D220FA1FFF723FC01AA27
:1089700021460D31501810A101F0FCF8C6B2204676
:108980000D308019C4B200BF05E001A9485D02F0B6
:108990000BF9681CC5B2A542F7DB11B0F0BD0000B1
:1089A0005645523A000000005645525F30305F3065
:1089B000305F3031000000000D0A00001CB51D249E
:1089C000002000900346012211460190204604F049
:1089D000E3FD00BF1CBD00001D2001218140024AB3
:1089E000916000BF70470000000500501D2001216C
:1089F0008140024AD16000BF70470000000500506E
:108A000010B5012292020849084801F0D0FE012267
:108A100092020749074801F0CAFE044801F0B2FE7D
:108A2000044801F0AFFE10BD6C2500206C2D002025
:108A30006C2900207C2D002070B50024002500BF8B
:108A400000F058F80446142C00DD1424002C14DD2A
:108A50000E4862DF21460E4800F030F822460C49ED
:108A60000C4802F0F7FD054608480078401C07490D
:108A70000870294608A006F0ABFB002D05D1002C9C
:108A800003DD024800780728DADB70BD08200020EB
:108A90008C2D0020102100206572725F636F646569
:108AA0003D25780D0A00000010B503480078012824
:108AB00001D1FFF7C1FF10BD0720002038B50446E3
:108AC0000D460020009000956A462146014801F0BD
:108AD00094FE38BD7C2D002038B504460D4600209C
:108AE000009000956A462146014801F0BBFE38BD62
:108AF0007C2D002010B5024803F049FE80B210BD65
:108B00007C2D002010B50446208812281DD006DCDC
:108B100001282FD0102807D0112836D10BE050287B
:108B200021D0522831D11AE01BA006F051FB0020C1
:108B30001E4908702AE01EA006F04AFB01201B49CE
:108B4000087002202049087020E020A006F040FBB9
:108B500002201649087001201B49087016E0012008
:108B60001949087012E0012017490870204600F0EA
:108B70005DF80BE000201F49087000F04DF803205D
:108B80000A490870FFF758FF00E000BF00BF2188C6
:108B900019A006F01DFB10BD626C6520636F6E6E40
:108BA0006563746564206F6B0D0A00000620002069
:108BB000626C6520646973636F6E6E65637465646F
:108BC000206F6B0D0A00000007200020626C6520FA
:108BD000636F6E6E6E20706172612075706164618A
:108BE0007465207375636365737366756C6C790D5A
:108BF0000A0000000820002065767469643D25782D
:108C00000D0A00001C2003490969C140C907C90FAA
:108C1000084670470005005010B5034804F09EFA5E
:108C2000014804F0C5FA10BD58F4010070B50546BE
:108C3000AC1D20883749C98888420AD1208B012879
:108C400007D13448006C002803D0A07E314A116C53
:108C5000884720882F49C98988420AD1208B01285A
:108C600007D12C48406C002803D0A07E294A516CC3
:108C7000884720882749C98A88420AD1208B012841
:108C800007D12448806C002803D0A07E214A916C33
:108C9000884720881F49C98B88420AD1208B012828
:108CA00007D11C48C06C002803D0A07E194AD16CA3
:108CB000884720881749C98C88420AD1208B01280F
:108CC00007D11448006D002803D0A07E114A116D11
:108CD000884720880F49C98D88420AD1208B0128F6
:108CE00007D10C48406D002803D0A07E094A516D81
:108CF000884720880749C98E88420AD1208B0128DD
:108D000007D10448806D002803D0A07E014A916DF0
:108D1000884770BDA02D002038B500240121684689
:108D200081701B21C9430180154816490864164803
:108D30004864164888641648C8641648086516488A
:108D40004865164888650A1D69460120A0DF04466B
:108D5000002C00D038BD00F013F9044600F088F96B
:108D600000F0FEF900F074FA00F0EAFA00F018F8EA
:108D700000F08EF8002C00D0ECE700BFEAE700001E
:108D80009D980100A02D0020C9980100F5980100D0
:108D9000219901004D990100459801007198010049
:108DA00000B58FB01C2108A8FFF71DFA08A80078AD
:108DB00008218843411808A80170007804218843DD
:108DC000011D08A80170007810218843014608A8F9
:108DD0000170002009900B900C900D900E900121D5
:108DE000684681721521C94301810020019000BFAE
:108DF0006846007901090901491C6846017100793A
:108E0000F021884310306946087100BF00BF6846F2
:108E1000407901090901491C684641714079F021F6
:108E2000884310306946487100BF68468079062142
:108E30008843811C684681718079082188430146F6
:108E400068468171807910218843014668468171A6
:108E5000807941084900491C68468171142103A8A2
:108E6000FFF7C1F902A8039001A804900121684608
:108E700081820021C18201210183044988880B4637
:108E80002E3303AA08A9A2DF0FB000BDA02D002039
:108E900000B58FB01C2108A8FFF7A5F908A8007835
:108EA00008218843411808A80170007804218843EC
:108EB000011D08A80170007810218843014608A808
:108EC0000170002009900B900C900D900E900121E4
:108ED000684681721421C94301810020019000BFBE
:108EE0006846007901090901491C68460171007949
:108EF000F021884310306946087100BF00BF684602
:108F0000407901090901491C684641714079F02105
:108F1000884310306946487100BF68468079062151
:108F20008843811C68468171807908218843014605
:108F300068468171807910218843014668468171B5
:108F4000807941084900491C68468171142103A8B1
:108F5000FFF749F902A8039001A80490012168468F
:108F600081820021C18201210183044988880B4646
:108F7000363303AA08A9A2DF0FB000BDA02D002040
:108F800000B58FB01C2108A8FFF72DF908A80078BC
:108F900008218843411808A80170007804218843FB
:108FA000011D08A80170007810218843014608A817
:108FB0000170002009900B900C900D900E900121F3
:108FC000684681721A21C94301810020019000BFC7
:108FD0006846007901090901491C68460171007958
:108FE000F021884310306946087100BF00BF684611
:108FF000407901090901491C684641714079F02115
:10900000884310306946487100BF68468079062160
:109010008843811C68468171807908218843014614
:1090200068468171807910218843014668468171C4
:10903000807941084900491C68468171142103A8C0
:10904000FFF7D1F802A8039001A804900121684617
:1090500081820021C18214210183044988888B1DEB
:1090600003AA08A9A2DF0FB000BD0000A02D0020B8
:1090700000B58FB01C2108A8FFF7B5F808A8007844
:1090800008218843411808A801700078042188430A
:10909000011D08A80170007810218843014608A826
:1090A0000170002009900B900C900D900E90012102
:1090B000684681721921C94301810020019000BFD7
:1090C0006846007901090901491C68460171007967
:1090D000F021884310306946087100BF00BF684620
:1090E000407901090901491C684641714079F02124
:1090F000884310306946487100BF68468079062170
:109100008843811C68468171807908218843014623
:1091100068468171807910218843014668468171D3
:10912000807941084900491C68468171142103A8CF
:10913000FFF759F802A8039001A80490012168469E
:1091400081820021C18214210183044988880B4651
:109150000E3303AA08A9A2DF0FB000BDA02D002086
:1091600000B58FB01C2108A8FFF73DF808A80078CB
:1091700008218843411808A8017000780421884319
:10918000011D08A80170007810218843014608A835
:109190000170002009900B900C900D900E90012111
:1091A000684681721821C94301810020019000BFE7
:1091B0006846007901090901491C68460171007976
:1091C000F021884310306946087100BF00BF68462F
:1091D000407901090901491C684641714079F02133
:1091E000884310306946487100BF6846807906217F
:1091F0008843811C68468171807908218843014633
:1092000068468171807910218843014668468171E2
:10921000807941084900491C68468171142103A8DE
:10922000FEF7E1FF02A8039001A80490012168461F
:1092300081820021C18201210183044988880B4673
:10924000163303AA08A9A2DF0FB000BDA02D00208D
:1092500000B58FB01C2108A8FEF7C5FF08A800784C
:1092600008218843411808A8017000780421884328
:10927000011D08A80170007810218843014608A844
:109280000170002009900B900C900D900E90012120
:10929000684681721721C94301810020019000BFF7
:1092A0006846007901090901491C68460171007985
:1092B000F021884310306946087100BF00BF68463E
:1092C000407901090901491C684641714079F02142
:1092D000884310306946487100BF6846807906218E
:1092E0008843811C68468171807908218843014642
:1092F00068468171807910218843014668468171F2
:10930000807941084900491C68468171142103A8ED
:10931000FEF769FF02A8039001A8049001216846A6
:1093200081820021C18201210183044988880B4682
:109330001E3303AA08A9A2DF0FB000BDA02D002094
:1093400000B58FB01C2108A8FEF74DFF08A80078D3
:1093500008218843411808A8017000780421884337
:10936000011D08A80170007810218843014608A853
:109370000170002009900B900C900D900E9001212F
:10938000684681721621C94301810020019000BF07
:109390006846007901090901491C68460171007994
:1093A000F021884310306946087100BF00BF68464D
:1093B000407901090901491C684641714079F02151
:1093C000884310306946487100BF6846807906219D
:1093D0008843811C68468171807908218843014651
:1093E0006846817180791021884301466846817101
:1093F000807941084900491C68468171142103A8FD
:10940000FEF7F1FE02A8039001A80490012168462E
:1094100081820021C18201210183044988880B4691
:10942000263303AA08A9A2DF0FB000BDA02D00209B
:109430003EB500200090019002900D480190002060
:1094400002900120694608800A4801F0B1FF0446F5
:1094500000BF2546002D06D000BF00221146284639
:1094600001F074F900BF00BF034802F08FFE3EBD5B
:1094700039C001002C21002009E2010010B50024B0
:1094800004F0DAFC1020094988800120C8800848CF
:10949000086004F0D1FC04460649044804F08EFD3F
:1094A0000446054800F00AF810BD00001420002012
:1094B000F1C601000C200020FC2D002010B5044650
:1094C000054A0021104604F0BFFB00231022024988
:1094D000204604F0F5FC10BD0C20002070B50446B9
:1094E0000025084A0021104604F0AEFB1021054873
:1094F00004F0FCFB002310222146024804F0EEFD9C
:10950000284670BD0C200020F0B587B00026002052
:109510000690FF20013005900125002416E00598F3
:1095200004F0B2F800280BD000BF5648406828402D
:10953000002805D0059804F09FF8304628430646D9
:109540006D000598001D80B20590641C042CE6D3C4
:10955000FF207D3004F098F800280AD0FF207D30ED
:1095600004F08AF80120C007064300BF464800699E
:1095700006903007000F00282AD00125002425E09E
:109580002846304000281FD000BF40485121090123
:109590004018A10040581F2109020840000A049009
:1095A00000BF3A48512109014018A1004058032149
:1095B00009040840000C0390204602F015FA074603
:1095C00003990498B84700BF6D00641C042CD7D3DE
:1095D000F00FC007002852D000244EE02C4800575E
:1095E000401C002848D02A48005D0490C0210498FF
:1095F00088430746384602F0FFF9029002F0F4F97A
:1096000003900398002836D0C021049808408011A8
:1096100002900120B840054600BF05200007072141
:1096200009024018B9004058032109040840000C01
:10963000019006982840002802D00198022806D000
:1096400006982840002815D10198032812D10298C5
:1096500003280BD10198022801D1032000E0022049
:1096600000903846009903F0D6FF00BF3846039AB1
:109670000299904700BF00BF641C042CAED307B012
:10968000F0BD000000630040000500500060004095
:109690007C31002010B502A005F09AFD10BD00003D
:1096A00068617264206661756C740D0A00000000C8
:1096B000C206D20E01219140014A1160704700009C
:1096C00080E200E0C206D20E01219140014A116001
:1096D0007047000000E100E0C206D20E0121914077
:1096E000014A11607047000000E200E010B5002858
:1096F00019DA1A4A03071B0F083B9B089B00D25834
:109700008307DC0EFF23A3409A438B071B0E8407BD
:10971000E40EA3401A43114B0407240F083CA4088D
:10972000A4001A5118E00E4A03231B02D218830822
:109730009B00D2588307DC0EFF23A3409A438B077C
:109740001B0E8407E40EA3401A43054B0324240296
:109750001B198408A4001A5110BD00001CED00E084
:1097600000E100E010B5002819DA1A4A03071B0FC0
:10977000083B9B089B00D2588307DC0EFF23A340C5
:109780009A438B071B0E8407E40EA3401A43114B28
:109790000407240F083CA408A4001A5118E00E4A3C
:1097A00003231B02D21883089B00D2588307DC0EC8
:1097B000FF23A3409A438B071B0E8407E40EA340AC
:1097C0001A43054B032424021B198408A4001A51D0
:1097D00010BD00001CED00E000E100E010B500202D
:1097E000074908600021064841608160C16000208F
:1097F000034940390860486005F0F2FA10BD0000E6
:109800004011014010B505F0FFF910BD70B50C48CE
:109810000068002810D00A4800688047044600BF4E
:109820002546002D06D000BF00221146284600F034
:109830008DFF00BF00BF01E003F0DCF870BD000049
:10984000F420002010B50446214602A005F0C0FC1B
:1098500010BD0000726563696576656420636861A8
:10986000723620646174613D25640D0A00000000B9
:1098700010B50446214602A005F0AAFC10BD000068
:109880007265636965766564206368617237206418
:109890006174613D25640D0A0000000010B50446A6
:1098A000214602A005F094FC10BD000072656369BA
:1098B0006576656420636861723120646174613D1E
:1098C00025640D0A0000000010B50446214602A0E0
:1098D00005F07EFC10BD0000726563696576656405
:1098E00020636861723220646174613D25640D0AF1
:1098F0000000000010B50446214602A005F068FCF7
:1099000010BD0000726563696576656420636861F7
:10991000723320646174613D25640D0A000000000B
:1099200010B50446214602A005F052FC10BD00000F
:10993000726563696576656420636861723420646A
:109940006174613D25640D0A0000000010B50446F5
:10995000214602A005F03CFC10BD00007265636961
:109960006576656420636861723520646174613D69
:1099700025640D0A0000000030B503460C460021A6
:109980001CE0585C2578A84200D016E0002206E0D2
:10999000521CA05C8D185D5DA84200D006E0A05C62
:1099A000002803D08818185C0028F1D100BFA05C03
:1099B000002801D1084630BD00BF491C585C002872
:1099C000DFD1401EF7E7000010B503F0DDF80028F6
:1099D00005D0104810494860C8131049886103F049
:1099E000B7F8002802D001200D49886003F02EF955
:1099F00000280ED00B480068012807D00A48094902
:109A0000086000BF074800680128FBD1C020054955
:109A1000486110BDDFFF07C000050040006C00403A
:109A20000006004000EC06407593000010B50021D0
:109A3000014803F055FC10BD009000401FB5012106
:109A400049024A4803F072FE00282FD0FF21253139
:109A5000464803F04DFE002828D0FF212531434819
:109A600003F04EFE81218900404803F055FE404836
:109A7000407D002803D104213C4803F063FE02200E
:109A800069460870394803F029FE03903848C17CC4
:109A9000684601723648C068019000203449C87495
:109AA0000846016842686846904725E004212F482F
:109AB00003F03CFE00281FD0FF2109312B4803F0A2
:109AC00017FE002818D004F03FFC2948C07C284924
:109AD000097D884210D12648407D002803D1042109
:109AE000224803F02FFE81218900204803F014FE54
:109AF0001F49087D04F0DCFCFF211D311B4803F0E9
:109B0000F7FD002815D01A48807C1949098A884237
:109B100002DD05F0D7F90CE0FF211D31134803F0F9
:109B2000EFFD1348807C002803D01149887C05F0A4
:109B30005BFAFF2145310D4803F0DAFD002814D00F
:109B4000FF214531094803F0DBFD0948407D00282D
:109B500003D00021054803F0F5FD0548C07C00282E
:109B600003D00349087D04F0A3FC1FBD0020004082
:109B7000843100200FB410B504A9074B02AA039842
:109B800000F0FEF8044602A9002000F095FC2046F3
:109B900010BC08BC04B01847B9A4010037B514467E
:109BA0000846064B6A46214600F0EAF80446694634
:109BB000002000F081FC20463EBD0000B9A4010059
:109BC0002021020C01D010211046020A01D01046BB
:109BD0000839020901D01046091F820801D0104639
:109BE000891E420801D0881E7047081A704730B499
:109BF0007446641E2578641CAB4204D3635D5B002D
:109C0000E31830BC18471D46F8E702E008C8121FE9
:109C100008C1002AFAD170477047002001E001C155
:109C2000121F002AFBD17047F0B51FB484B007980B
:109C30000699020D014314D04A484B491018484375
:109C400005140F9801280E981CD0281A401C0024D7
:109C5000464E4749009401910290002814DA474289
:109C600027E00F98012443A3012808D0002104987D
:109C70000F9A84600360C260416009B0F0BD0E9825
:109C8000C143F4E74042E2E7074612E0F80707D095
:109C90002246334601990098FEF792FB019100900D
:109CA0002246334610461946FEF78AFB04460E4606
:109CB0007F10002FEAD10298019B0028009A079993
:109CC000069802DAFEF77CFB01E0FEF7E1FB0446B2
:109CD0000E460022284BFEF773FC03D80020C04339
:109CE000014607E00022254B20463146FEF7B6FA32
:109CF000FEF746FC102409E0002C0ADB0A220023B0
:109D0000FEF77CFA059B30321A55641E02460A4360
:109D1000F2D11122641C059B121B1C190F9B012BF5
:109D200003D0012308430ED10AE0084304D01120D8
:109D30000E9000200F9084E70E98151A6D1E0BE010
:109D40000E98824202DD00236D1C03E0824201DA9C
:109D500000236D1E002BEED004980F998260C16025
:109D600030C08AE701FCFFFF104D000000002440D6
:109D70000000F03F300000000000F0430000E03F32
:109D8000FFB597B00646002518E2252877D10024B4
:109D90002746FD49049400E00443761C32780120F4
:109DA000203A90400842F7D130782A280ED002227B
:109DB000307801463039092916D804990A235943C5
:109DC000303940181443761C0490F1E7189802C803
:109DD00004911890002904DA01204003044348420A
:109DE000049002200443761C30782E2814D10420DD
:109DF00004437078761C2A2809D11898761C80C8EC
:109E0000189009E00A214F43303FC719761C30787B
:109E1000014630390929F5D930786C2810D006DC94
:109E20004C281AD068280ED06A2817D104E074286C
:109E300013D07A2812D110E00120400504430CE031
:109E40000121090501E0032109050C4371788142D4
:109E500003D1012000052418761C761C307811905F
:109E600066280BD013DC58287DD009DC00287BD075
:109E70004528F6D04628F4D047281AD1A5E118E0A5
:109E8000632835D0642870D0652812D19DE17028F0
:109E90006CD008DC6728F1D069287BD06E280DD003
:109EA0006F2806D1BAE073282ED0752871D0782893
:109EB00059D01A9A199990476D1C7EE16002400FA3
:109EC000022809D003280DD00428189801680DD065
:109ED0000D60001D189070E11898EA1701680D6078
:109EE0004A60F6E7189801680D80F2E70D70F0E718
:109EF00018986A4601781172001D1890002050725F
:109F000002A80090012005E0189802C818900020CF
:109F10000091C04361070DD5002101E00199491C62
:109F20000191B94212DA8142F8DB009A515C0029B2
:109F3000F4D10BE0002101E00199491C019181421B
:109F4000FADB019A0099895C0029F5D101990498FE
:109F50001A9B471A21463846199A00F097FA019938
:109F6000401945180BE04FE02CE113E04EE000985B
:109F700000990078491C00911A9A19999047019804
:109F8000401E0190401CF2D1214638461A9B199A76
:109F900010E137E00A200021009001916002410F9A
:109FA000022907D0189A01CA1892C21794460329A9
:109FB00008D00AE01898C01DC108C90005C9189149
:109FC000944607E000B2C2179446042902D140B279
:109FD000C1178C4600226146944506DA0A460021E4
:109FE000404291418C462D2102E0210504D52B21D0
:109FF0006A461173012103E0E10701D02021F7E750
:10A00000029155E00A200AE0102008E0102000909C
:10A010000021042004430191082703E008200021C7
:10A02000019100906002410F022907D0189A01CADD
:10A03000189200229446032908D008E01898C01D01
:10A04000C108C90005C91891944603E080B20429EB
:10A0500000D1C0B200210291210729D511997029A0
:10A0600006D0009A1021019B4A401A4305D00EE009
:10A0700040216A461173012108E06146014306D080
:10A0800030216A4611731199517302210291009A8D
:10A090000821019B4A401A430AD16146014301D17C
:10A0A000610705D530216A46117301217F1E029197
:10A0B0001199582904D035A10E910DA90D910DE0EB
:10A0C00037A1F9E76146019B009AFEF797F80E9BCE
:10A0D0008C469B5C0D9A521E0D9213706146014393
:10A0E000F0D10D9805A9081A20300190600703D51A
:10A0F00001200004844300E001270198874201DD2C
:10A10000381A00E0002001990090411802980918BF
:10A110000498401A0490E00306D421461A9B199A29
:10A12000049800F0B3F94519002706E003A81A9A2D
:10A13000C05D199990476D1C7F1C02988742F5DB22
:10A14000E0030CD521461A9B199A049800F09EF959
:10A15000451904E01A9A3020199990476D1C00990E
:10A16000481E00900029F5DC08E00D980D99007854
:10A17000491C0D911A9A199990476D1C0199481E16
:10A1800001900029F1DC63E109280100303132330C
:10A190003435363738396162636465660000000023
:10A1A000303132333435363738394142434445460D
:10A1B0000000000000F05AF94519761C307800289C
:10A1C00000D0E2E528461BB0F0BD600700D40627AA
:10A1D0001898C01DC108C90048680A680831C30F33
:10A1E000DB071891190001D09CA108E0210501D5D9
:10A1F0009BA104E0E10701D09AA100E09AA14300ED
:10A2000011985B08109165280CD006DC452809D010
:10A2100046281DD0472841D141E0662818D067283C
:10A220003CD13CE00021112F01DB112000E0781C23
:10A230000191009008A911A8FFF7F6FC1399059168
:10A240000021119A15927F1C12980197009150E0FD
:10A250000120C00703900120019008A9009711A8D0
:10A26000FFF7E2FC139A149905920022119B0092C9
:10A2700012981593059A0192002901D0104602E028
:10A28000791C40180190381A01D5019804E0404229
:10A29000401E0090781C0190C01B029043E0012FEB
:10A2A00000DA01270021112F01DD112000E03846DE
:10A2B0000191009008A911A8FFF7B6FC1399059128
:10A2C000119A0021129815920091019721070CD440
:10A2D0000599B94201DB019900E00191012904DDF2
:10A2E000159A491E515C302906D0B84201DA011D89
:10A2F00005DA0121029115E00199491EEDE70028D8
:10A3000005DC0099411800910199091A03E0019AAE
:10A31000411C914200DD01910099401A401C0290BD
:10A320000120C0070390200706D4029901988142BA
:10A3300002DB0020C043029000206946C87707AFC7
:10A34000012103980337C907884224D002201190C5
:10A350002B201290039800280CDA404203902D2005
:10A36000129007E00A210398FDF7FAFE30317F1EB4
:10A37000039039701199481E11900029F2DC03985E
:10A380000028EFD1791E12980870307820210840FB
:10A390004530BF1E387006A8C01BC01D0390109822
:10A3A0000078002800D00120019941180298C017B8
:10A3B0000918039809180498401A401E0490E003F5
:10A3C00006D421461A9B199A049800F05FF84519A3
:10A3D00010980078002803D01A9A199990476D1C9C
:10A3E000E00324D521461A9B199A049800F04EF8F0
:10A3F00045191CE00098002807DB00990598884261
:10A4000003DD1598405C199901E0199930201A9ADA
:10A41000904700986D1C401C00900298401E0290CE
:10A42000002804D11A9A2E20199990476D1C019981
:10A43000481E01900029DDDC05E038781A9A7F1C5F
:10A44000199990476D1C0399481E03900029F4DC6C
:10A4500021461A9B199A0498ACE600002D000000D2
:10A460002B0000002000000000000000F8B50446AA
:10A4700000251E461746880404D405E039462020EE
:10A48000B0476D1C641EF9D52846F8BDFFB50446DB
:10A49000002581B01E46C80301D5302700E02027E3
:10A4A000880404D505E038460399B0476D1C641E46
:10A4B000F9D5284605B0F0BD0A68531C0B60107032
:10A4C0007047F7B582B0044616460025378800204D
:10A4D0003080606B00280CD0616B08783B463246B8
:10A4E000039904F00DF80546002D02D0284605B06A
:10A4F000F0BD206B00280AD03B463246206B039902
:10A5000004F0BDFC0546002D01D02846EFE72E20C3
:10A51000005D00280BD02E21085D3B463246039992
:10A5200002F0EFFB0546002D01D02846DFE72D2085
:10A53000005D002809D03A463146039800F002FF3A
:10A540000546002D01D02846D1E7A078002809D083
:10A550003A463146039800F03DFB0546002D01D0F8
:10A560002846C4E7E07800280BD0E17848B23B46A3
:10A570003246039902F019F90546002D01D028460C
:10A58000B5E7606800280CD00020616808563B469B
:10A590003246039904F03EFD0546002D01D02846C1
:10A5A000A5E7208900280DDD0197009606220221EB
:10A5B00020460830039B04F0B5FE0546002D01D06F
:10A5C000284694E7208A00280DDD0197009607228F
:10A5D000032120461030039B04F0A4FE0546002D05
:10A5E00001D0284683E7208B00280DDD01970096D7
:10A5F0001522142120461830039B04F093FE0546D3
:10A60000002D01D0284672E7206A00280AD03B4678
:10A610003246206A039901F0CFFB0546002D01D098
:10A62000284664E7606A00280AD03B463246606AE2
:10A63000039902F0D9FC0546002D01D0284656E7C3
:10A640002C20005D00280ADD3B4632462046039957
:10A6500003F071FF0546002D01D0284647E720781A
:10A6600000280AD03B4632462046039902F0F8FC07
:10A670000546002D01D0284639E7284637E7014630
:10A68000C87804221040002801D10720704700201C
:10A69000FCE7000030B5A7B0382119A8FDF7A3FDED
:10A6A000022118A80171002181710621C171382190
:10A6B0000BA8FDF798FD012168468187114910918B
:10A6C000242102A8FDF78FFD012168460175402075
:10A6D0000690B420079000200B4B02AA0BA9009013
:10A6E00019A800F01BFB044600BF2546002D06D02C
:10A6F00000BF00221146284600F028F800BF00BF26
:10A7000027B030BD022000207DD7010070B574DF76
:10A71000044600BF2546002D06D000BF002211468A
:10A72000284600F013F800BF00BF002001F018F920
:10A73000044600BF2546002D06D000BF002211466A
:10A74000284600F003F800BF00BF70BD00BF00BF87
:10A7500000BF00BF00BFBFF34F8F00BF00BF00BFEF
:10A7600006480749C86000BF00BF00BFBFF34F8F56
:10A7700000BF00BF00BF00BF00BFFDE70400FA0537
:10A7800000ED00E00146C86888600020704770B5A1
:10A7900004460D46204601F0FAFF002805D0294660
:10A7A000204601F0E5FF002070BD0520FCE70346D0
:10A7B000002901D10E207047002A03D0501E1040FE
:10A7C000002801D00920F6E71960501E988000206B
:10A7D0009860D86000BFEEE770B504460D4620468D
:10A7E00001F0D5FFA188884205D82946204601F00E
:10A7F000D3FF002070BD0420FCE7F7B582B00E4601
:10A8000015460298002802D10E2005B0F0BD002D9B
:10A8100001D10E20F9E7029801F0B9FF04462F6834
:10A820000020019000902C60002C01D10520ECE765
:10A83000002E02D12C600020E7E7A74201D200974A
:10A8400000E0009400BF0198421C81190192029817
:10A8500001F08EFF009901988842F4D30098286097
:10A860000020D2E7F7B582B006461446002E02D18A
:10A870000E2005B0F0BD002C01D10E20F9E73046C6
:10A8800001F085FFB188081A451C27680020019057
:10A8900000902560002D01D10420EAE703980028EC
:10A8A00001D12560E5E7AF4201D2009700E00095B5
:10A8B00000BF0198421C0192039A115C304601F0DE
:10A8C0006BFF009901988842F3D300982060002024
:10A8D000CFE70000F8B505460C4627780C21A068A4
:10A8E000484306490E580648006800902A463946F3
:10A8F000204608302369B047F8BD000068320020C8
:10A90000BC20002010B504460648007814225043AD
:10A91000044A121D81182046FFF7DCFF042003F0D3
:10A92000A1FE10BD9C31002010B503460C460D4819
:10A930000068002801D1082010BD002A01D107209D
:10A94000FAE7002B01D10720F6E71868007C002801
:10A9500001D00820F0E71968002008744C744A619F
:10A9600000BFE9E7D4200020FFB581B00E461446B1
:10A970001F4620468107890F002901D1012100E0EF
:10A980000021002902D1072005B0F0BD002C04D120
:10A9900000201C4908600720F6E703F0A9FC1A48CC
:10A9A0000760032019490870164804601834002510
:10A9B0000CE0E900134A1268881800210170417008
:10A9C00086704460182171430C196D1C032DF0DB57
:10A9D00000200F4908600F4908700F4908701420C3
:10A9E000FEF766FE03211420FEF7BCFE1420FEF7DE
:10A9F00069FE019803F052FC03F04AFC0749086025
:10AA00000020C1E7D4200020EC200020D02000202E
:10AA1000D8200020E8200020E9200020DC200020B1
:10AA2000FEB504460D461746264612480068002823
:10AA300001D10820FEBD002C01D10820FAE7052D28
:10AA400001D20720F6E77069002801D10820F1E75C
:10AA5000707C012801D1284600E00020029004F01B
:10AA600037FC009701902A463146029B04F06CF9AE
:10AA7000E0E70000D420002070B5044625460B48CE
:10AA80000068002801D1082070BD002C02D0686940
:10AA9000002801D10820F7E70020287404F018FCF2
:10AAA0000646294604F07CF9EEE70000D420002099
:10AAB00070B504460A4801F065FE09498988884254
:10AAC00009D10121074802F08FFC0546002D01D075
:10AAD000052070BD00BF21460148FFF758FEF8E78A
:10AAE0001C3100209A200020FFB589B004460D4695
:10AAF000174627480760002D02D107200DB0F0BD92
:10AB0000A88882B223482968FFF751FE0646002E26
:10AB100001D03046F2E7A88982B21F48A968FFF742
:10AB200046FE0646002E01D03046E7E720221B49AC
:10AB300001A8FDF73FFBA06807902079002801D00D
:10AB4000012000E000206946087608A90C980870EA
:10AB50006079002801D00E2000E000206946487688
:10AB6000E0780390A07804902078029060780190BB
:10AB70000B4901A802F0F8FB0646002E01D0304632
:10AB8000BCE702F0A1FC0121064802F02DFCB5E76C
:10AB9000942000201C3100202C310020CCF4010036
:10ABA000B1F001009A20002070B5044607480470F7
:10ABB000012102F097FC0546112D04D121460448DD
:10ABC000FFF70AFE0546284670BD000099200020C8
:10ABD0002C310020F8B505460C4617462088001D8C
:10ABE000B84201D90C20F8BD684679DF0646002E30
:10ABF00001D03046F7E70320218868542088401CA4
:10AC000020801920218868542088401C20802088BA
:10AC100041196846008804F000FB21884018208014
:10AC20000020E0E770B50446206802F0E8FC2068E8
:10AC300002F014FD0021606802F0D4FCA069144900
:10AC4000052212028918486200BF607D217D0246FC
:10AC50000A430F4B05252D025B19DA6600BF0C482D
:10AC60006268216802F071FD207D01280ED100216B
:10AC7000A06802F0B7FCE06802F0C1FCE06802F0F6
:10AC8000EDFC0348A268E16802F03DFD70BD0000E4
:10AC900000200040F3B593B00D461F211291119191
:10ACA0001398002814D01398FFF7E9FC0446002CF1
:10ACB00002D0204615B0F0BD12AA09A91398FFF7DB
:10ACC00000FC0446002C01D02046F3E709AE02E068
:10ACD000002600201290002D13D0284603F022FDFC
:10ACE0000446002C01D02046E4E711AA01A9284619
:10ACF000FFF7E7FB0446002C01D02046DAE701AF5E
:10AD000002E000270020119010A88088C3B210A88C
:10AD10000089C1B23A46304672DFCBE7F8B5044647
:10AD20000F4615461E46002C01D0002D01D10E20E5
:10AD3000F8BD002048490870484806604849069810
:10AD40000860242229464748FDF734FA00F022F92A
:10AD50004548464908604648886038214548FDF71F
:10AD600042FA207843490870A0788870E078C8706B
:10AD700060784870626920694A6108610846E26843
:10AD8000A168C2608160E269A169C2618161606A93
:10AD900000281BD038483749486238498160606ACA
:10ADA00000883449496A0880606A80883149496A64
:10ADB0008880002005E0616A8968095C2F4A115487
:10ADC000401C2C49496A89888142F4D8A06A00282D
:10ADD00024D02B492B488160264988622849254880
:10ADE000806A8160A06A80882249896A8880A06A16
:10ADF00000882049896A0880002005E0A16A8968E6
:10AE0000095C1F4A1154401C1A49896A8988814289
:10AE1000F4D82C20015D174820300173206A0028E7
:10AE20000BD0194813490862206A4088096A488093
:10AE3000206A00880F49096A08806068002804D0E9
:10AE400012480C4948606068486039460948FFF775
:10AE500021FF009000986BE74C2000204420002048
:10AE600048200020B02E0020E42E0020D42E002008
:10AE7000042F0020782E0020242F0020302F0020C7
:10AE80005C2F0020502F0020502000205420002054
:10AE900070B504462088102804D0112806D019283F
:10AEA00069D11AE0A0883549088065E0002034495E
:10AEB0000870A0883149098888420DD1012000F02E
:10AEC00071F80546002D07D02E480068002803D0F1
:10AED00028462C49096888474EE0A079002849D1C6
:10AEE00029480078012806D0022813D0032820D052
:10AEF00004283DD12FE0022000F054F80546002D33
:10AF000007D020480068002803D028461D4909685A
:10AF100088472EE0032000F045F80546002D07D0B5
:10AF200018480068002803D0284616490968884751
:10AF30001FE0032015490870042000F033F805468F
:10AF4000002D07D00F480068002803D028460D497F
:10AF5000096888470DE000200C4908700C4800681B
:10AF6000002804D00846007809490968884700E0AD
:10AF700000BF00BF00E000BF00BF70BD5620002032
:10AF80004D200020482000204C20002040200020A0
:10AF90004420002010B507210148FDF724F910BD19
:10AFA0003920002030B587B00546A2480570002042
:10AFB0000090684602F030FE0446082C02D10020C2
:10AFC000009004E0002C02D0204607B030BD00986D
:10AFD000002804D00120984908700020F5E7FFF709
:10AFE000D9FF96484078002803D09248007801287D
:10AFF00007D092488078002812D08E480078022826
:10B000000ED18F480068002807D001208D490870B4
:10B0100008208B490968884702E0002089490870A8
:10B020008448007801280BD184484078002804D057
:10B03000854802F0E3FD002802D102207D49087016
:10B040007C48007802280BD17C488078002804D006
:10B050007D4802F0D3FD002802D103207549087015
:10B060007648007B002806D172480078032802D178
:10B070000420704908707148007E002808D16D488E
:10B080000078042804D100206A4908706F490870CC
:10B090006B480068002817D066480078032803D062
:10B0A0006448007804280FD16448007800280BD049
:10B0B00067480078002807D10120664908700720FA
:10B0C0005F490968884702E000206249087018213A
:10B0D00001A8FDF788F80021684601710020029060
:10B0E000684601730020049052480078012806D079
:10B0F000022811D0032823D0042879D150E05248E7
:10B10000401E02900121684601710021C1828182A6
:10B1100001204E49087075E04B48401E0290012105
:10B12000684601714548008981B26846C18243483A
:10B13000808881B26846818202204449087061E0BB
:10B140003E48808A81B26846C1823C48008A81B20A
:10B1500068468182404804F073F900281CD03748C3
:10B160000078002818D03A480078002814D102202E
:10B17000694608733848049004203849C870002193
:10B180003648FFF787FD0446002C01D020461CE717
:10B1900005202E49087002E003202C49087031E098
:10B1A0002648808B81B2684681822448008C81B217
:10B1B0006846C182284804F043F900281DD01F4882
:10B1C0000078002819D022480078002815D10220E4
:10B1D000694608732048049004202049C870002163
:10B1E0001E48FFF757FD0446002C02D02046ECE62F
:10B1F00007E006201549087002E004201349087092
:10B2000000E000BF00BF0B480078002806D001A86E
:10B2100073DF0446002C01D02046D6E608480068BB
:10B22000002804D0094800780549096888470020AB
:10B23000CBE600004C20002038200020B02E00205B
:10B24000442000204F2000203A20002040200020F1
:10B250004D2000204E200020D42E0020782E0020EB
:10B2600070B505461C2229461448FCF7A3FF0020B0
:10B2700013490870286800280BD008221148296853
:10B28000FCF798FF0F487ADF0446002C08D02046D0
:10B2900070BD0C487BDF0446002C01D02046F7E748
:10B2A0000020C04308490880002008490870084A67
:10B2B00000210848FFF738FBEAE700007C2F002058
:10B2C0006D200020582000206220002060200020F7
:10B2D00035F20100A8F4010010B5044620881028BA
:10B2E00006D0112808D012280ED050281DD107E012
:10B2F000204602F0FBFA19E0204602F0C3FB15E0FD
:10B30000204602F00DFC11E000BF09494868012108
:10B3100089058143064A9160012189050140D16078
:10B3200000BF204602F0D6FA00E000BF00BF10BD0B
:10B330000005005010B502480068FFF79DFB10BDE6
:10B34000A8F40100FEB505460C46174620880930D2
:10B35000B84201D90C20FEBD684671DF0646002EBA
:10B3600001D03046F7E70820218868542088401C27
:10B3700020801B20218868542088401C2080218840
:10B380004819062200A90131FCF714FF2088801D0E
:10B39000208068460078002802D12188685402E0A5
:10B3A0000120218868542088401C20800020D2E79A
:10B3B00070B586B004460E46002C04D0002E02D094
:10B3C0007068002802D10E2006B070BD0020C04376
:10B3D0002080204B0FCB01AD0FC51F4869468882E6
:10B3E000163101A863DF0546002D01D02846EBE7A2
:10B3F000221D05A90120A0DF0546002D01D0284609
:10B40000E2E76846807DA071204600F035FF0546E2
:10B41000002D01D02846D7E7204600F0BDFE0546A6
:10B42000002D01D02846CFE73146204600F08EFFA0
:10B430000546002D01D02846C6E77068A062B068B6
:10B44000002801D0B068E0620120044908700020A3
:10B45000BAE70000BCF40100301500006E200020A7
:10B4600070B505460C46002D01D0002C00D170BDF2
:10B47000A86A00281FD02088102806D011280ED0D6
:10B48000502807D0512814D10EE02146284602F05A
:10B490004EFA0FE02146284602F09AFB0AE02146C8
:10B4A000284602F015FB05E02146284602F014FB71
:10B4B00000E000BF00BF00BFD9E7000070B586B054
:10B4C00004460D461646002C02D10E2006B070BD73
:10B4D00020881A49884203D019480078002801D1F1
:10B4E0000820F3E700210191102168468288501C52
:10B4F00083B214480193815468468188481C82B203
:10B5000010480192455468468188481C82B20D4813
:10B510000192465400200290039004900590218AE5
:10B5200068460181012181720021818101A8049076
:10B5300004480590208802A9A6DFC7E7FFFF0000A6
:10B540006E2000206F20002010B504462046FFF733
:10B55000C3FE2146084800F059F8204602F02CF9B5
:10B560002046FFF795FC21460448FFF779FF204667
:10B57000FDF7C8FA10BD0000102100202C2100208A
:10B5800070B586B004460E461F4B0FCB01AD0FC5FC
:10B59000002C01D0002E02D10E2006B070BD00207C
:10B5A000C043A0823068A0610120A07500202070F7
:10B5B000214601A863DF0546002D01D02846ECE7AF
:10B5C0000121684681751E21C9438182A21C05A9FB
:10B5D0000120A0DF0546002D01D02846DDE73146D9
:10B5E000204602F0CDFE0546002D01D02846D4E7C6
:10B5F0003146204603F082FC0546002D01D0284646
:10B60000CBE70020C9E70000ACF4010070B50546A7
:10B610000C46002D01D0002C00D170BD20881028D0
:10B6200004D0112807D050280FD109E02146284620
:10B6300002F07AF90AE02146284602F045FA05E0D0
:10B640002146284602F09AFA00E000BF00BF00BF82
:10B65000E3E7000037B584B004460D46002C02D164
:10B660000E2007B030BDA08A0F49884202D0A07DCD
:10B67000002801D10820F4E76846008B142801DD7A
:10B680000720EEE700200090019002900390A1892E
:10B6900068460180039506A80290012168468170E2
:10B6A000A08A6946A6DFDCE7FFFF00007CB500BF8B
:10B6B000002348222349082002F0F4FF054600BF7A
:10B6C0002E46002E06D000BF002211463046FFF75E
:10B6D0003DF800BF00BF00BF002000900190694608
:10B6E0000870684660DF044600BF2546002D06D07E
:10B6F00000BF002211462846FFF728F800BF00BF10
:10B70000114802F0C3FF044600BF2546002D06D0B5
:10B7100000BF002211462846FFF718F800BF00BFFF
:10B720000A4802F0F3FF044600BF2546002D06D06C
:10B7300000BF002211462846FFF708F800BF00BFEF
:10B740007CBD00005C21002049B5010079EA0100C0
:10B75000F8B500BF002020E0012181400F225205F2
:10B760001140002918D000BF01210A4600263746A3
:10B77000009653000B43B40023433C022343009C38
:10B78000240423430524240707252D02641985007A
:10B79000635100BF00BF00BF401C2028DCD300BFA6
:10B7A00000BF0F2040050349C8600020886000BF2B
:10B7B000F8BD000000050050F8B5064608200090CE
:10B7C00001236A4621493046AADF04462048006822
:10B7D0008047B12044DF044600BF2546002D06D037
:10B7E00000BF002211462846FEF7B0FF00BF00BF91
:10B7F00011DF044600BF2546002D06D000BF002201
:10B8000011462846FEF7A2FF00BF00BF1149486954
:10B8100013DF044600BF2546002D06D000BF0022DE
:10B8200011462846FEF792FF00BF00BF304600F0E9
:10B8300023FC162001218140074A116000BF01F05E
:10B8400037F90449486900F009F8F8BDEC2F0020E9
:10B85000782000200010001080E200E010B50446BF
:10B860002046FCF737FC10BD10B5032000F08EF821
:10B87000044600BF002C03D0062C01D0204610BD8A
:10B8800000BF0020FBE70000F3B581B006460025AD
:10B89000002400E0641C042C04D2A00029490858AC
:10B8A000B042F7D1042C42D20298002825D00128BA
:10B8B00002D002283AD133E06000201822490D5C02
:10B8C000600020184018407800280ED01F480068FB
:10B8D0000A22504301461E4A1E480068FFF7A0F89E
:10B8E0000746002F01D11A4806706000201816493B
:10B8F000401880781849085518E016480068FFF786
:10B90000BBF81548005D610061180F4A89188978F5
:10B91000884204D16000201811464018857805E05F
:10B920006000201808494018457800BF00BF002D6E
:10B9300007D00A480068002803D02846074909684C
:10B940008847FEBD78F401004C2E00202020002006
:10B950003020002074F40100312000202C20002031
:10B9600070B50446002506480078C007C00F0028BF
:10B9700003D0204600F006F80546284670BD0000BA
:10B9800024200020014600207047000070B50246C8
:10B99000002021E08400124D2C59A400114D64199F
:10B9A0002168012484401440002C01D0032400E0CD
:10B9B0000024234603252D040C46AC4321461C04D9
:10B9C00021430524240707252D0264198500044E10
:10B9D0007559AD006151401C0428DBD3002070BDB7
:10B9E00078F401000007005001468800014A105811
:10B9F000704700003C310020014601484056704726
:10BA00005C310020F0B587B03E48007814214843EF
:10BA10003C49091D4418E7680C21A06848433A498D
:10BA20004018008906900C21A06848433649401808
:10BA3000408905900C21A06848433349401840686C
:10BA4000049002F0F3F9014602903846FCF788FBB7
:10BA5000002901D1012000E00020039005990698FB
:10BA60004843049946186088C019A18845180020E9
:10BA7000264908600398002804D002F0D7F96188AD
:10BA800088420AD00398002804D0B54202D1A08889
:10BA9000002802D0A06802280CD102F0C7F90146A4
:10BAA00002903846FCF75CFB19490860032002F05D
:10BAB000D9FD24E002F0BAF90190A188C8190199D2
:10BAC000FCF74EFB88081349086002F0AFF9014605
:10BAD00001902846FCF744FB002901D1012000E039
:10BAE00000200290B54206D00298002803D1B1B2DE
:10BAF000A8B202F0D7FF022002F0B4FD00BF07B0E9
:10BB0000F0BD00009C31002068320020AC200020F5
:10BB1000B0200020A820002010B50848007814218B
:10BB200048430649091D44182078042802D000F033
:10BB3000A5F801E002F02EFF10BD00009C310020AE
:10BB400010B50F480078142148430D49091D4418C9
:10BB500060880C4908602078012804D0032805D0AB
:10BB6000042809D105E002F015FF06E0FFF74AFFBF
:10BB700003E003F05BFB00E000BF00BF10BD00006E
:10BB80009C310020BC20002010B5034840780028DC
:10BB900001D0FFF7D5FF10BD9C31002000231421F8
:10BBA00041430C4A53541421414389184B800123CB
:10BBB0001421414389188B600023142141438918C3
:10BBC000CB601421414389180B611421414389182A
:10BBD0008B807047A0310020FFB581B00646174624
:10BBE0001C4840780A2830D01A480078194949780A
:10BBF00044180A2C00D30A3C142060431549091D3F
:10BC00000E5414206043401807611420604341180B
:10BC1000029805C8CA608860142161430D4A121D4C
:10BC20008918049848801421614389180A988880EB
:10BC3000101F4078401C111F4870074800780028EA
:10BC400001D1FFF77DFF002500E00425284605B05F
:10BC5000F0BD00009C310020A420002010B5002081
:10BC6000054908704870002403E02046FFF796FF5E
:10BC7000641C0A2CF9D310BD9C31002010B5084873
:10BC8000007814225043064A121D81180020FEF746
:10BC900021FE00F007F8002002F0E4FC10BD0000D7
:10BCA0009C31002010B509490878FFF777FF074855
:10BCB0004078401E0549487008460078401CC0B2D4
:10BCC00008700A2801D10020087010BD9C310020A6
:10BCD000FEB51F480068002836D01D48006805687A
:10BCE00002F0D6FA01901B4804682146019802F040
:10BCF00005FFC61C18480078002801D102F0DAFAC6
:10BD0000AE4201D2284600E0304604192402240A3B
:10BD1000204602F0B7FA02F0BBFA009001990098B1
:10BD200002F0ECFEC71C2046019902F0E7FE8742B4
:10BD300009D902F0ADFA074602F0A4FA2F20FCF769
:10BD4000E3F903F097F801E002F0D2FAFEBD00003B
:10BD5000D8200020DC200020F020002001460888A8
:10BD6000062808DB08881922D201904205DD0888E0
:10BD7000104A904201D0072070474888062808DB07
:10BD800048881922D201904205DD4888094A90422C
:10BD900001D00720F0E70888064A904208D048887A
:10BDA000904205D008884A88904201DD0720E3E7E9
:10BDB0000020E1E7FFFF0000FFB581B006460D4619
:10BDC00014462088801D0499884202D90C2005B0B1
:10BDD000F0BD3046FFF7C2FF0746002F01D03846BE
:10BDE000F5E70520218868542088401C2080122017
:10BDF000218868542088401C20802288511930886E
:10BE000003F00BFA2188401820802288511970888D
:10BE100003F003FA2188401820800020D7E710B5EE
:10BE2000044600BF002211462046FEF78FFC00BFEB
:10BE300010BD000030B587B01C216846FCF7D3F96F
:10BE4000002000900120C003019002900321684669
:10BE500001730021C18101740A4805900A480690C7
:10BE60006846FFF7FDF9044600BF2546002D06D0C1
:10BE700000BF002211462846FEF768FC00BF00BF45
:10BE800007B030BD85D801001FBE010038B51F487E
:10BE900000F04CFE002829D11D48007800280AD067
:10BEA0001C484069002820D00020009019484169B2
:10BEB0006846884719E018480078002802D11548DC
:10BEC000456801E013488568002229461348006848
:10BED000FEF7A6FD0446002C07D00E488069002816
:10BEE00003D00C488169204688470AE00948406928
:10BEF000002806D00120009006484169684688471E
:10BF000000BF00200249087038BD000064200020F6
:10BF10006D2000207C2F002060200020A8F401006C
:10BF200010B514484068C105C90D002920D00A4643
:10BF3000103A50B200280DDA0E4B1C330407240FC0
:10BF4000083CA408A4001B598407E40EE3401B0628
:10BF50009B0F0BE0084B032424021B198408A40048
:10BF60001B598407E40EE3401B069B0FD8B210BD9B
:10BF70000420FCE700ED00E000E100E010B51C4803
:10BF800000680821084000282FD11A480068401C8A
:10BF90001849086018480068002803D0042002F0FF
:10BFA00061FD24E000F026FE002803D0022002F00C
:10BFB00059FD1CE011480068002813D00C48007897
:10BFC000C007C00F002809D10948006801210843B3
:10BFD00007490860002002F045FD08E0032002F058
:10BFE00041FD04E002F012FD01E002F01FFD10BD72
:10BFF000C0200020B0200020A8200020AC2000207D
:10C0000010B50C4800680821084000280FD10948E5
:10C01000006802210840002805D006480068012178
:10C02000084304490860022002F01CFD01E002F010
:10C03000FDFC10BDC0200020F8B504460D46287850
:10C04000002803D12088FFF7B7FB12E0032201216B
:10C050002046FFF733FA064600BF3746002F06D0CA
:10C0600000BF002211463846FEF770FB00BF00BF3C
:10C0700000BF00BFF8BD000070B58AB006460020C2
:10C0800003903F49304600F047FA0446002C75D132
:10C0900004A93B4800F0CCF90446002C4ED100BF67
:10C0A0002546002D06D000BF002211462846FEF787
:10C0B0004DFB00BF00BF08980146103107223148F0
:10C0C000FCF778F810222F48C01D0899FCF772F889
:10C0D00011222C4818300499FCF76CF8049801469A
:10C0E00012310A2227482A30FCF764F8254800DF7D
:10C0F000044600BF2546002D06D000BF0022114691
:10C100002846FEF723FB00BF00BF01200390042058
:10C11000019003A80290002000906946184800F0A2
:10C1200081F9044600BF2546002D06D000BF00223D
:10C1300011462846FEF70AFB00BF1FE011491048D0
:10C1400000F020FA044600BF2546002D06D000BFAF
:10C15000002211462846FEF7F9FA00BF00BF094841
:10C1600000DF044600BF2546002D06D000BF002298
:10C1700011462846FEF7EAFA00BF00BF0AB070BDBC
:10C180007C200020B82F0020704700000149086083
:10C19000704700007820002010B58EB004461C21A6
:10C1A00007A8FCF720F86846007F0821884341185B
:10C1B00068460177007F102188434118684601775F
:10C1C000002008900A900B900C900D90A179684681
:10C1D0008171284981800020009000BF6846007866
:10C1E00001090901684601700078F0218843694619
:10C1F000087000BF00BF6846407801090901491C6A
:10C20000684641704078F021884310306946487094
:10C2100000BF6846807806218843811C684681708B
:10C220008078082188430146684681708078102113
:10C230008843411868468170807841084900491C4C
:10C2400068468170142102A8FBF7CDFF01A8029077
:10C2500068460390002101824182172181820020DB
:10C260000690A0882346103302AA07A9A2DF0EB0C9
:10C2700010BD00003115000010B58EB004461C2121
:10C2800007A8FBF7B0FF6846007F04218843011D23
:10C2900068460177002008900A900B900C900D9052
:10C2A000A17968468171284981800020009000BFF3
:10C2B0006846007801090901684601700078F0219C
:10C2C00088436946087000BF00BF6846407801098E
:10C2D0000901491C684641704078F02188431030BC
:10C2E0006946487000BF6846807806218843811CF3
:10C2F00068468170807808218843014668468170CD
:10C300008078102188430146684681708078410812
:10C310004900491C68468170142102A8FBF763FF9D
:10C3200001A80290684603900021018241821421F5
:10C33000818200200690A0882346083302AA07A91C
:10C34000A2DF0EB010BD00003215000030B58FB076
:10C3500004460D461C2108A8FBF745FF08A80078F5
:10C3600002218843811C08A80170002009900B90CD
:10C370000C900D900E90A179684681722849018138
:10C380000020019000BF6846007901090901491C9D
:10C39000684601710079F0218843103069460871C0
:10C3A00000BF00BF68464079010909016846417134
:10C3B0004079F02188436946487100BF684680791A
:10C3C00006218843811C6846817180790821884351
:10C3D000014668468171807910218843014668468C
:10C3E0008171807941084900491C68468171142196
:10C3F00003A8FBF7F8FE02A8039001A8049002210D
:10C40000684681820021C182022101830795A088AC
:10C410002346203303AA08A9A2DF0FB030BD0000D5
:10C42000341500000246014870470000918000006A
:10C4300070B58AB005460C4600BF31480078002828
:10C4400002D130480AB070BD00BF002D02D12D4886
:10C45000801DF7E7002C02D12A48801DF2E700BFBB
:10C460002878012806DA28780C21484326490858FC
:10C47000002801D12348E5E700BF00BFA8780728BE
:10C4800007DAA8781C21484320494018807EFF28FD
:10C4900002D11C480830D5E700BF00BF0020E06093
:10C4A000A8781C2148431949411821610021616184
:10C4B000174860600020A06003A82060A97801AA46
:10C4C000144801F0C1FB0646002E17D11C231A4662
:10C4D00001A903A801F0F4FC0646002E0ED1E0608D
:10C4E000A8781C2148430949411821610021616154
:10C4F000074860600020A06003A820603046A1E7E4
:10C500008C20002008800000F8300020F42F00204C
:10C51000043100208020002030B50446002901D1DC
:10C52000154830BD00BF0878012806DA08780C25C8
:10C530006843124D2858002802D10F48801FF0E7A9
:10C5400000BFFF208870052300220FE00C2050431D
:10C550000B4D40190089A04207D14A700C2050436E
:10C560004019C07A8870002302E0521C002AEDD0E6
:10C5700000BF1846D5E700000E800000F83000200C
:10C58000EC30002070B504460E4600BF2948007804
:10C59000002801D1284870BD00BF002C02D12648D8
:10C5A000801DF8E7002E02D12348801DF3E700BF6D
:10C5B0002078012806DA20780C2148431F490858C2
:10C5C000002801D11C48E6E700BF1B4DED1EA078F6
:10C5D000FF2817D16078FF282AD060780C214843C3
:10C5E00017494018807A02210840022820D160783B
:10C5F0000C225043124A811807223046FBF7DAFD1D
:10C60000002515E0A0781C2148430E494018807E83
:10C610000221084000280BD1A0781C225043094A6F
:10C6200080180146103107223046FBF7C3FD002574
:10C630002846B0E78C20002008800000F830002059
:10C64000EC300020F42F0020014614480078144AF2
:10C65000127890421DD011480078401C0F4A10708B
:10C6600010460078022801D1002010700B48007895
:10C6700080000C4A105808600B4A0868126880183D
:10C68000094A1060104600680002000A106001208C
:10C6900070470020086000BFFAE70000E820002093
:10C6A000E9200020E0200020DC20002010B50D480B
:10C6B000006808210840002810D10B480068401C81
:10C6C0000949086000F096FA002802D1FFF724FA21
:10C6D00006E00648007801F0C5FF01E000F074FCB8
:10C6E00010BD0000C0200020B0200020A4200020A9
:10C6F00010B5029C012907D0022904D0032905D0D6
:10C70000042904D101E002E001E000E000BF00BF25
:10C7100010BD0000F0B50346002420E0134E306841
:10C7200006689E4203D90668F61A06601BE0066892
:10C730009B1B06683419002606600C4E35680B4FAB
:10C74000C6693E60C668002E08D00E193602360A49
:10C750004660C66886601668C661156000BF0348FB
:10C7600000680028DAD100BFF0BD0000D82000200A
:10C77000826883881A4003689A5C0A708268521C37
:10C780008260704701468A68C868801A704701460F
:10C790008A68C868801A7047C26883881A4003682C
:10C7A0009954C268521CC260704730B50446108864
:10C7B000C01C984201D90C2030BD02201588485574
:10C7C0001088401C10800120158848551088401C96
:10C7D000108015884C551088401C10800020EBE715
:10C7E00010B50446002C02D0112C08D100E00AE05C
:10C7F00006480068082108430449086003E0204611
:10C80000FEF780F800BF00BF10BD0000C020002070
:10C8100010B50C480068401C0A49086003280DD078
:10C8200009480078022804D00748007801F01AFF70
:10C8300007E00648007802F015F902E00D20FEF747
:10C8400061F810BDB4200020A4200020A520002005
:10C8500010B50A480078012804D0022808D003281F
:10C8600009D102E002F09CF806E0FFF71FFF03E0A9
:10C8700002F0ECF800E000BF00BF10BDA4200020D3
:10C8800070B50446204628DF0546FFF7A9FF70BDB6
:10C89000F8B504460D46164632462946204629DF9D
:10C8A0000746FFF79DFFF8BD70B592B000BF08A81E
:10C8B000007F01090901491C0F9108A8007FF021A0
:10C8C000884310300F9000BF0026202105A8FBF7F9
:10C8D0008AFC274A07CA05AB07C30DA871DF0446C7
:10C8E00006220DA9013108A8FBF764FC0DA8817987
:10C8F000427900790DABDB780093029203910190AD
:10C900000DA8837808A8427D1AA1FDF733F90646E1
:10C9100030460C3082B205A90FA87CDF044600BF68
:10C920002546002D06D000BF002211462846FDF7FF
:10C930000DFF00BF00BF002010901190102110A823
:10C9400001803C21418000218180FF219131C18003
:10C950007ADF044600BF2546002D06D000BF002226
:10C9600011462846FDF7F2FE00BF00BF12B070BDB1
:10C97000FC2D0020257825782578257825782578C0
:10C980000000000010B51848006808210840002881
:10C9900026D100F085F900280CD00020134908604A
:10C9A00011480068012108430F490860002002F087
:10C9B00059F817E000F01EF9002806D000200B49B6
:10C9C0000860022002F04EF80CE0094800680028D8
:10C9D00003D0032002F046F804E002F017F801E06B
:10C9E00002F024F810BD0000C0200020A820002084
:10C9F000AC200020F8B529480078002800D1F8BD07
:10CA000027480068002801D1012000E000200546E9
:10CA100024480068002801D1012000E000200646DB
:10CA200000BF002D14D1684651DF0446052C01D10A
:10CA300001250CE0002C06D000BF00221146204644
:10CA4000FDF784FE03E0164900980968884700BF97
:10CA5000002E1AD1144800880090694613480068D7
:10CA600061DF0446052C01D101260DE0002C06D023
:10CA700000BF002211462046FDF768FE04E00B4887
:10CA8000006808490968884700BF002D02D0002EC1
:10CA900000D000E0C5E700BF00BFB0E7F8200020ED
:10CAA000082100200421002000210020FC2000207B
:10CAB00010B50B490A6800200FE0012181401140A8
:10CAC000002909D041B2CC06E40E0123A340044C56
:10CAD0008034236000BF00BF401C2028EDD310BD70
:10CAE00000E100E0FEB50446002000900190022124
:10CAF000684601800021418002A80190A18A208817
:10CB00006A46A5DF0546002D07D0E06A002802D05E
:10CB10002846E16A88470020FEBD02AE304602F09A
:10CB200076FB0746F807C00F00BFF5E701464888C7
:10CB3000064A1288904206DB4888044A528890428E
:10CB400001DC012070470020FCE700005820002095
:10CB50000C48008CC0B2012812D10A48808C000712
:10CB6000000F00280CD10748806AF02108404028B7
:10CB700006D10448C06A0840002801D1012070474E
:10CB80000020FCE7C00F00F01948008CC0B201285B
:10CB90002CD11748808C0007000F002826D114489C
:10CBA000806AF0210840002806D11148C06A084078
:10CBB000002801D1012070470D48806AF02108400B
:10CBC000102806D10A48C06A0840002801D1012077
:10CBD000F1E70748806AF0210840302806D1044870
:10CBE000C06A0840002801D10120E4E70020E2E704
:10CBF000C00F00F0F8B512480078142148431049DE
:10CC0000091D4518EF6801F011F900906988C919EC
:10CC1000AA888918481E0099FBF7A2FA0646094817
:10CC20000068B04207D307480068B04205D1064803
:10CC30000068002801D1012400E000242046F8BD4E
:10CC40009C310020B0200020AC2000201348008C34
:10CC5000C0B201281FD11148808C0007000F0028A6
:10CC600019D10E48806AF0210840A02806D10B484F
:10CC7000C06A0840002801D1012070470748806A37
:10CC8000F0210840D02806D10448C06A0840002896
:10CC900001D10120F1E70020EFE70000C00F00F014
:10CCA000F8B510480078142148430E49091D45186D
:10CCB000EE6801F0BBF8009069888919AA88891884
:10CCC000481E0099FBF74CFA074607480068002801
:10CCD00005D006480068B84201D1012400E00024D4
:10CCE0002046F8BD9C310020AC200020B020002060
:10CCF00001468807800F002801D1012070470020DD
:10CD0000FCE730B504461088C01C984201D90C20BD
:10CD100030BD0220158848551088401C10801C200A
:10CD2000158848551088401C1080012C06D0022C14
:10CD300008D0032C0AD0042C10D10BE00020158859
:10CD400048550DE001201588485509E00220158856
:10CD5000485505E003201588485501E00720D7E72E
:10CD600000BF1088401C10800020D1E7F8B5214892
:10CD700000680090204806782EE0F0001F490968FE
:10CD80004418257824E01820684361680F18681C4F
:10CD9000C5B2A078A84200D100253878022802D078
:10CDA000032812D103E0786801F096FF0EE007E057
:10CDB00010490868002101740E4AC169116000BF62
:10CDC0000C4800680028F3D100E000BF00BF00BF9E
:10CDD0006078A842D7D100BF3046711ECEB200287D
:10CDE000CBD1044801680098814201D00120F8BDF0
:10CDF0000020FCE7D8200020D0200020D4200020F4
:10CE0000FEB506463C48006801903C48007800901A
:10CE100063E00098C0003A490968451856E0002EC2
:10CE200002D03446E66924E02978182359436A6819
:10CE300050182978491C29702978AA78914201D183
:10CE40000021297044680178012902D1217C002940
:10CE500000D03BE081686160C168A1600169E16068
:10CE60004169A16127490978002901D00021616049
:10CE700000BF254960680968401A0002000A23497A
:10CE8000884208D220496068096801F037FEA1682D
:10CE9000401820600FE01C486168006801F02EFE19
:10CEA0000746A068B84203D9A068C01B206001E013
:10CEB0000020206000BF00206060A060012020747E
:10CEC0000020E061204601F0D1FE00BF002EA6D177
:10CED000287869788842A2D100BF0098411EC9B263
:10CEE0000091002895D1044801680198814201D041
:10CEF0000120FEBD0020FCE7D8200020D02000202B
:10CF0000D4200020F1200020DC200020FFFF7F0043
:10CF1000FBF776FD00BF0023294A05211846FDF7DF
:10CF200023FD054600BF2E46002E06D000BF00227E
:10CF300011463046FDF70AFC00BF00BF00BF02F0FB
:10CF400017F9FCF79BFAFEF703FCFBF7F2FBFBF784
:10CF500035FD0A2001F0D8FDFEF7A8FBFFF7A4FC81
:10CF6000FCF766FAFBF7D8FE01F030FBFDF792FB09
:10CF7000FEF760FF0320FEF715F8044600BF2546C4
:10CF8000002D06D000BF002211462846FDF7DEFB2B
:10CF900000BF00BF00BFFBF735FE002807D000BF71
:10CFA000012000060749C86000208860F3E700BF41
:10CFB00001200006034988600020C860EBE70000FC
:10CFC000A42300200005005010B505480068082182
:10CFD0008843034908600348007801F043FB10BD13
:10CFE000C0200020A4200020FFB581B005460E46D9
:10CFF0001446A888871C2088801CC1190498814287
:10D0000002D90C2005B0F0BDFE2F01D90C20F9E7A4
:10D01000781C218870542088401C2080FF202188A3
:10D0200070542088401C208022889119288802F0A2
:10D03000F4F8218840182080A88800280EDDA86810
:10D04000002801D10720DDE7AA8823889819A9685C
:10D05000FBF7B0F82088A988401820800020D1E78D
:10D06000FFB583B005460F4614462878012805D140
:10D070006878002802D1072007B0F0BD2088801C06
:10D080000699884209D82878012808D12088801C70
:10D09000697841180698814201D90C20ECE7218873
:10D0A0000698401A801E86B201962188891CC819EC
:10D0B00001A97DDF02900298002801D00298DBE7E9
:10D0C0002878022806D168468088B04202DC092010
:10D0D00000900BE0082000902878012805D168789E
:10D0E000B04202DC6878019000E0019668468088D2
:10D0F000FE2801D90C20BFE768468088401C2188A3
:10D1000078542088401C20802188009878542088FA
:10D11000401C2080218868468088081820800020D4
:10D12000AAE7000070B504460D4629462046FCF7E4
:10D13000DDFA00BFE106C90E0120884005490860FC
:10D1400000BF00BFE106C90E012088400249086007
:10D1500000BF70BD80E200E000E100E010B50446D1
:10D160000C21206800F0B7FA10BDF8B505460C4652
:10D1700016461F4601200004A0400090012F04D154
:10D180002868009900F09AFA03E02868009900F0F6
:10D1900090FA2B68A100152292019818465000BF02
:10D1A000F8BD01468800FF30413080B27047000072
:10D1B00010B504460021206800F08DFA0220617944
:10D1C000014A505410BD0000C8200020F8B50546A3
:10D1D0000E4617461C46FF220132B2400123B340DF
:10D1E0001A431146286800F06EFA286801214902A6
:10D1F0000958214301225202115000BF3A463146DC
:10D200002846069BFFF7B1FFF8BD000070B5044645
:10D210000D46164660792D49085C002801D008208B
:10D2200070BD002D03D16079C000294945182949F6
:10D230002068884201D10720F2E7E97804202056CF
:10D24000FFF770FF61798900234A68685050002E0B
:10D2500004D06079800021490E5001E00720DFE70B
:10D26000697820680522120282185268520852001A
:10D27000CB07DB0F1A4305231B02C3185A6000BFFC
:10D28000A9782068052212028218926892089200FA
:10D290008B079B0F1A4305231B02C3189A6000BF1C
:10D2A00029782068052212028218126912091201D7
:10D2B0000B071B0F1A4305231B02C3181A6100BF7B
:10D2C00001206179014A50540020A9E7C8200020BC
:10D2D00034F5010000800040CC200020C420002054
:10D2E000F8B504460F46002529E02846FFF759FF08
:10D2F0000646204631464258002A01D0012200E06D
:10D300000022002A1AD001200004A84003210902AB
:10D31000611849680140002901D0012100E0002185
:10D3200000290BD03146204600F0B9F9B800054B72
:10D330001958B800044B1A58304690476D1C042DFC
:10D34000D3D3F8BDCC200020C4200020F8B504467B
:10D350000D467D267602206800F0A4F90746304687
:10D36000F84068438008F8BD70B504460D461A4879
:10D37000807D002801D0082070BD002C00D1174C02
:10D380002046FDF74FFC14484560134920690860AA
:10D390000846406800280AD0267F1149114800F04D
:10D3A000C0F931460220FFF7BDFE00BF00BF00BF3D
:10D3B00000BF04200B49052212028918086000BF33
:10D3C00000BF00200449C8748874012088750020BB
:10D3D000487500BFD0E7000084310020ECF4010064
:10D3E0008000020000200040F3B581B006463448BA
:10D3F000C07C002801D01120FEBD31490298C874BC
:10D400000846C660002008750846407D002801D106
:10D4100001F064F82A48406800284AD100BF00BFE4
:10D42000FF212531274800F063F90546FF21093126
:10D43000244800F05DF90746FF214531214800F0FE
:10D4400057F90446002F03D1002C01D1002DE7D05D
:10D45000002D01D1002C00D007E000F075FF184826
:10D46000C07C1749097D8842D9DC00BFFF214531C6
:10D47000144800F045F9FF212531124800F040F929
:10D4800000200F49C874002D01D00320B4E7002C00
:10D4900001D00F20B0E70A48407D002804D00021C9
:10D4A000084800F04FF903E00421064800F04AF96B
:10D4B00004E081218900034800F033F900209BE754
:10D4C000843100200020004010B50548407D002830
:10D4D00004D101F003F801200149487510BD000096
:10D4E0008431002070B504460D4600262848807C13
:10D4F000002801D0112070BD25488574846000206B
:10D5000023490882FF211D31224800F0F9F8082143
:10D51000204800F017F901F0D5FC1D4840680028AC
:10D5200033D115E000BFFF211D311A4800F0E0F8AB
:10D53000002805D11648008AFF2101318842F2D126
:10D540001348008AFF210131884201D001F0BAFC62
:10D550000F48807C0E49098A8842E3DC0C48008A27
:10D56000FF210131884201D10F260BE000BFFF21CE
:10D570001D31084800F0BCF80028F8D00C210548FF
:10D5800000F0E0F80020024988743046B3E700005C
:10D590008431002000200040F0B5059C55000D436B
:10D5A0009E00354326023543069E36043543052644
:10D5B000360707273F02F6198700F551F0BDF0B591
:10D5C000059C55000D439E00354326023543069EBB
:10D5D000360435430526360707273F02F61987002C
:10D5E000F551F0BD7CB505460C4600200090234661
:10D5F0000246014601902846FFF7E1FF7CBD1CB5BD
:10D600000446002000900346012211460190204666
:10D61000FFF7D5FF1CBD10B50522120707231B021B
:10D62000D2188300D25803231B049A4305231B07F7
:10D63000072424021B1984001A510522120707230C
:10D640001B02D2188300D2580B041A4305231B0770
:10D65000072424021B1984001A5110BD01218140A6
:10D66000014A9160704700000005005001460148E2
:10D67000081870470060004010B504462046FFF7C8
:10D68000F5FF0021016010BD10B504462046FFF7EC
:10D69000EDFF0068012800D110BD0020FCE700224A
:10D6A0004250704701460520000208180069C0B2C8
:10D6B00070470322120282189160704703221202FF
:10D6C0008218516070470122520212588A43012386
:10D6D0005B021A50704701224250704701460922EE
:10D6E000D2018A1810680922D2018A181060704786
:10D6F00002465058002801D0012070470020FCE766
:10D7000000224250704705231B02C318996005236D
:10D710001B02C3181A61704703221202821891601B
:10D72000704703221202821851607047024603209C
:10D730000002101840680840002801D001207047FE
:10D740000020FCE701224250704705231B02C3184A
:10D75000D96005231B02C3185A617047F8B5074604
:10D760000D461646002406E000BF285DFDF71CFAB2
:10D770000028FAD1641CB442F6D3F8BD70B5054652
:10D78000002D12D0032D13D10220FEF7E9F8044634
:10D7900000BF2646002E06D000BF002211463046AC
:10D7A000FCF7D4FF00BF00BF03E000F02BFF00E058
:10D7B00000BF00BF70BD000070B505462888102866
:10D7C00006D011281AD013282FD0522855D140E066
:10D7D0000720FEF7C5F80446FBF7FEF800BF264613
:10D7E000002E06D000BF002211463046FCF7AEFFE7
:10D7F00000BF00BFA888224908803FE00020FEF754
:10D80000AFF80446FBF7F2F800BF2646002E06D01C
:10D8100000BF002211463046FCF798FF00BF00BF52
:10D820000020C0431649088028E000231A468521BD
:10D83000134800887FDF044600BF2646002E06D02E
:10D8400000BF002211463046FCF780FF00BF00BF3A
:10D8500014E000231A46194609480088A9DF044647
:10D8600000BF2646002E06D000BF002211463046DB
:10D87000FCF76CFF00BF00BF00E000BF00BF70BD41
:10D880000020002070B5054600BF104948680121FE
:10D89000C90581430D4A91600121C9050140D1604C
:10D8A00000BF2878002810D13B210948008876DF86
:10D8B000044600BF2646002E06D000BF00221146B7
:10D8C0003046FCF743FF00BF00BF70BD00050050AD
:10D8D0000020002010B504460822A11D0248FAF7D6
:10D8E00069FCFEF7D3FA10BD6420002010B5044691
:10D8F000A088094908800822214616310748FAF70E
:10D9000059FC0020064908700648C089002801D14A
:10D91000FEF7BCFA10BD0000622000206420002049
:10D92000602000207C2F00208A88828270478A88AD
:10D930000280704770B588B004460D4602206946E3
:10D9400008742046FFF7CEF8002808D1FF20FE30EB
:10D9500069468882208804A9A8DF08B070BD00202D
:10D9600069468882208804A9A8DF0646002E01D0D7
:10D970003046F2E700BFA87E0300FCF738F90979CA
:10D98000061D343C444C71547900002069460871EE
:10D99000288B022805DAA97E06222046FDF78EFD97
:10D9A000DBE7012101A8017228461B30029001A982
:10D9B0002046A26A904761E0012069460871288BE1
:10D9C000022805DAA97E06222046FDF777FDC4E786
:10D9D000012101A8017228461B30029001A92046AE
:10D9E000A26A90474AE002206946087101A92046D0
:10D9F000A26A904742E003206946087101A92046C7
:10DA0000A26A90473AE004206946087101A92046BD
:10DA1000A26A904732E005206946087101A92046B4
:10DA2000A26A90472AE0288B032805DA03220821FE
:10DA30002046FDF743FD90E728461B3001F0E7FB49
:10DA4000694608810889002802D10720087102E090
:10DA500006206946087101A92046A26A90470DE098
:10DA600009206946087101A92046A26A904705E08D
:10DA7000A97E03222046FDF721FD6EE700BF0020AE
:10DA80006BE7000070B505460020C0430A490880D6
:10DA900000200A4908700A480068FCF7EDFF0446B8
:10DAA000002C07D007488069002803D00548816909
:10DAB0002046884770BD00006220002060200020C2
:10DAC000A8F401007C2F00200022D24382827047FC
:10DAD0000022D24302807047F8B505460C46A61DC9
